:100000000C94D10B0C94FC0B0C94FC0B0C94FC0B7F
:100010000C94FC0B0C94FC0B0C94FC0B0C94FC0B44
:100020000C94FC0B0C94FC0B0C94FC0B0C94FC0B34
:100030000C94FC0B0C94FC0B0C94FC0B0C94FC0B24
:100040000C94FC0B0C948A160C94B6160C94E216C5
:100050000C94FC0B0C94FC0B0C94FC0B0C94FC0B04
:100060000C94FC0B0C94B5170C94FC0B0C94091815
:100070000C94FC0B0C94FC0B0C94FC0B0C94FC0BE4
:100080000C94FC0B0C94FC0B0C94FC0B0C94FC0BD4
:100090000C94DF170C94FC0B0C9437180C94FC0B8D
:1000A0000C94FC0B0C94FC0B0C9482150C94AE1568
:1000B0000C94DA150C94FC0B0C94FC0B0C940616A7
:1000C0000C9432160C945E160C94FC0B0C94FC0BE6
:1000D0000C94FC0B0C94FC0B0C94FC0B0C94FC0B84
:1000E0000C94FC0B0C94FC0B0C94FC0B0C94FC0B74
:1000F0000C94FC0B0C94FC0B0C94FC0B0C94FC0B64
:100100000C94FC0B0C94FC0B0C94FC0B0C94FC0B53
:100110000C94FC0B0C94FC0B0C94FC0B0C942F110A
:100120000C94FC0B0C94FC0B0C94FC0B0C94FC0B33
:100130000C94FC0BF623FE23B9240624B924B9241D
:100140000E2416247224B924B924B924B924B9245C
:100150007A24B92482248A24B9249324B924B92482
:10016000A824B924B0241F582958325847589A59FE
:10017000A959075A0C94A1360C94075A0C94731879
:100180000C940E370C9449340C941A300C94EB1FD9
:100190000C942B4F0C94466E0C94F2500C947224D9
:1001A0000C94B9240C943A670C949F390C944942EE
:1001B0000C94E7390C94210C0C94C5510C944758BD
:1001C0000C949A590C94C4330C9429580C943258BA
:1001D0000C94DC570C941F580C9478310C948C3888
:1001E0000C94596A0C94EB2C0C94282A0C94C43867
:1001F0000C94FE230C94A8240C943B390C946C387A
:100200000C94200D0C9406240C94E9390C94861857
:100210000C94B0240C94FD180C94EE180C94AE368B
:100220000C94074F0C9459610C942E370C94366142
:100230000C94250C0C94E3290C94B64A0C941624C7
:100240000C945D2C0C94EE360C9470530C940E248C
:100250000C9493240C948A240C94CA500C942C0C67
:100260000C9482240C94F6230C947A240C94A959AF
:100270000C947F390C94D51C0C94CE360C94C5503C
:100280000C94264F6364696E6F70737578585B00C9
:10029000464154414C204552524F523A204241442B
:1002A0004953525F766563742063616C6C65642C9E
:1002B00020756E70726F63657373656420496E7428
:1002C0006572727570742E0A53544F5020457865CC
:1002D000637574696F6E2E0A000A00200025733A58
:1002E0002000444E532063616368653A2000444E09
:1002F00053206361636865206E6F7420757064615C
:1003000074650A002020636F6D6D72657365743AC1
:100310002025640A00202072657365743A202564E4
:100320000A0020207075626C6973683A20737563E7
:10033000636573732025642C206661696C202564D5
:100340000A00202072656769737465723A207375BC
:1003500063636573732025642C206661696C2025B6
:10036000640A002020636F6E6E6563743A207375B3
:1003700063636573732025642C206661696C202596
:10038000640A00537461746973746963733A000A90
:1003900000646973636F6E6E6563746564006C6995
:1003A0006E676572007075626C697368696E67006C
:1003B000636F6E6E6563746564006E6F7420636F47
:1003C0006E6E6563746564004D5154542D534E2018
:1003D00073746174653A20002C7B226E223A226D80
:1003E0007174745F736E3B73746174733B636F6D90
:1003F0006D7265736574222C2275223A22636F75C3
:100400006E74222C2276223A25647D002C7B226E8B
:10041000223A226D7174745F736E3B7374617473EE
:100420003B7265736574222C2275223A22636F75C4
:100430006E74222C2276223A25647D005D7D007B3D
:10044000226E223A226661696C222C2275223A229F
:10045000636F756E74222C2276223A25647D007BB0
:10046000226E223A226F6B222C2275223A22636F6F
:10047000756E74222C2276223A25647D2C002C7B0A
:10048000226E223A226D7174745F736E3B737461D5
:1004900074733B7075626C697368222C22766A22D1
:1004A0003A5B005D7D007B226E223A226661696CB8
:1004B000222C2275223A22636F756E74222C2276CA
:1004C000223A25647D007B226E223A226F6B222C19
:1004D0002275223A22636F756E74222C2276223A9C
:1004E00025647D2C002C7B226E223A226D7174745F
:1004F0005F736E3B73746174733B72656769737489
:100500006572222C22766A223A5B005D7D007B2296
:100510006E223A226661696C222C2275223A22638D
:100520006F756E74222C2276223A25647D007B2220
:100530006E223A226F6B222C2275223A22636F754B
:100540006E74222C2276223A25647D2C002C7B228C
:100550006E223A226D7174745F736E3B73746174B2
:10056000733B636F6E6E656374222C22766A223A47
:100570005B002C7B226E223A20226D7174745F73B3
:100580006E3B67617465776179222C227673223A1B
:10059000225B25735D3A2564227D00257325730057
:1005A0006D717474736E5F73746174653A20626107
:1005B0006420747970652025640A00737461727414
:1005C000206D717075623A207069642025640A009C
:1005D0006300620061004D5154542D534E3A206423
:1005E0006973636F6E6E656374206661696C6564C0
:1005F0002025640A00526567697374657220746F00
:1006000070696320256420666F7220222573220A98
:10061000006572726F723A20756E61626C6520744B
:100620006F206F627461696E20746F706963204916
:100630004420666F72202225732220286572726F13
:1006400072202564290A006D717075623A20726506
:100650006769737465722025730A004D5154542DD7
:10066000534E3A20436F6E6E65637420746F20673B
:10067000617465776179205B25735D3A25640A00B2
:100680006572726F723A20756E61626C6520746F6C
:1006900020636F6E6E65637420746F20676174658C
:1006A000776179205B25735D3A2564202865727235
:1006B0006F72202564290A005D3A25640A006D7175
:1006C0007075623A20436F6E6E65637420746F209C
:1006D0005B000A0A6572726F723A20756E61626C15
:1006E0006520746F207075626C6973682064617432
:1006F0006120746F20746F70696320272573205BFD
:1007000025695D2720286572726F72202564290A89
:10071000006D717075623A207075626C6973682043
:1007200020256420746F2025733A20222573220A25
:100730000075726E3A6465763A6D61633A257300AE
:1007400025732F257300253032780043616E27749E
:1007500020676574206E6F646569640A00307825CF
:10076000303278002C7B226E223A2022626F6F7426
:100770003B72657365745F6361757365222C2276C5
:1007800073223A222573227D002C7B226E223A208E
:1007900022626F6F743B6275696C64222C227673DF
:1007A000223A2252494F54202573227D002C7B226D
:1007B0006E223A2022626F6F743B6170706C6963C5
:1007C0006174696F6E222C227673223A226D7174E5
:1007D00074736E5F7075626C6973686572227D00F8
:1007E0002C7B226E223A227365715F6E6F222C225F
:1007F00076223A25647D002C226274223A256C759B
:100800002E2530336C757D007B22626E223A2225C4
:10081000733B22005D005B005D7D007B226E223A0F
:1008200022707265765F6475726174696F6E222CD6
:100830002275223A226D736563222C2276223A2594
:100840006C757D002C007B226E223A2261637469F4
:10085000766174696F6E5F74696D65222C227522F2
:100860003A226D736563222C2276223A256C757DBF
:10087000002C7B226E223A2273696D373032303B76
:1008800064656C61793B222C22766A223A5B005DBA
:100890007D007B226E223A226163746976617469FD
:1008A0006F6E5F6661696C222C2275223A22636F3B
:1008B000756E74222C2276223A256C757D007B227F
:1008C0006E223A2261637469766174696F6E5F7338
:1008D000756363657373222C2275223A22636F75E8
:1008E0006E74222C2276223A256C757D2C007B2298
:1008F0006E223A227265736574222C2275223A2286
:10090000636F756E74222C2276223A256C757D2CCD
:10091000007B226E223A22636F6D6D6661696C22E4
:100920002C2275223A22636F756E74222C22762255
:100930003A256C757D2C007B226E223A2272782239
:100940002C2275223A2262797465222C2276223A70
:10095000256C757D2C007B226E223A227278222C27
:100960002275223A22636F756E74222C2276223A07
:10097000256C757D2C007B226E223A227478222C05
:100980002275223A2262797465222C2276223A2537
:100990006C757D2C007B226E223A2274785F666132
:1009A000696C6564222C2275223A22636F756E741D
:1009B000222C2276223A256C757D2C007B226E2219
:1009C0003A227478222C2275223A22636F756E7453
:1009D000222C2276223A256C757D2C002C7B226EEF
:1009E000223A2273696D373032303B73746174730D
:1009F0003B222C22766A223A5B005D7D00227D003C
:100A00007B226E223A22696D6569222C227673223E
:100A10003A2200227D2C007B226E223A22696D73DD
:100A200069222C227673223A22002C7B226E223AF3
:100A30002273696D373032303B7265676973746554
:100A4000723B222C22766A223A5B007375636365DF
:100A500073733A202573736574206F7074696F6EB9
:100A60000A006572726F723A20756E61626C652061
:100A7000746F20736574206F7074696F6E007D00F1
:100A80007C0025730075736167653A202573203CEF
:100A900069665F69643E205B2D5D7B0075736167ED
:100AA000653A202573203C69665F69643E205B756A
:100AB000707C646F776E5D0A0075736167653A20BC
:100AC00025730A006572726F723A20756E61626CEE
:100AD0006520746F2064656C6574652049507636B6
:100AE00020616464726573732E0075736167653A83
:100AF000202573203C69665F69643E2064656C2034
:100B00003C697076365F616464723E0A0065727299
:100B10006F723A20756E61626C6520746F2061643B
:100B200064204950763620616464726573732E00C8
:100B300075736167653A202573203C69665F696457
:100B40003E20616464205B616E79636173747C6DC7
:100B5000756C7469636173747C756E6963617374B9
:100B60005D203C697076365F616464723E5B2F7015
:100B700072656669785F6C656E5D0A006572726F9A
:100B8000723A20756E61626C6520746F20736574B3
:100B9000206C696E6B2025730A0020746F2025730A
:100BA0000A00737563636573733A20736574207309
:100BB00074617465206F6620696E74657266616326
:100BC0006520006572726F723A20756E61626C65A5
:100BD00020746F2073657420737461746520746F62
:100BE0002025730A0075736167653A206966636F33
:100BF0006E666967203C69665F69643E2073657450
:100C0000207374617465205B6F66667C736C6565C8
:100C1000707C69646C657C72787C74787C726573B6
:100C200065747C7374616E6462795D00256C750A0D
:100C30000030782530346C780A0020746F20002052
:100C40006F6E20696E7465726661636520007375EE
:100C500063636573733A2073657420000065727274
:100C60006F723A20756E61626C6520746F207365D7
:100C70007420006572726F723A20756E61626C65E5
:100C800020746F2070617273652076616C75652EBB
:100C90000A4D75737420626520612031362D6269BA
:100CA0007420756E7369676E656420696E7465671C
:100CB00065722028646563206F7220686578290A50
:100CC000006572726F723A20756E61626C65207495
:100CD0006F2070617273652076616C75652E0A4DA8
:100CE00075737420626520612031362D626974202D
:100CF000756E7369676E656420696E746567657289
:100D00002028646563206F7220686578290A006571
:100D100072726F723A20756E61626C6520746F201A
:100D200070617273652076616C75652E0A4D7573FE
:100D30007420626520612031362D62697420756EE1
:100D40007369676E656420696E74656765722028D3
:100D5000646563206F7220686578290A0020746FCB
:100D60002025690A00206F6E20696E7465726661C5
:100D700063652000737563636573733A20736574EC
:100D80002000006572726F723A20756E61626C6548
:100D900020746F20736574200020746F2025690A09
:100DA00000206F6E20696E74657266616365200055
:100DB000737563636573733A20736574200000650F
:100DC00072726F723A20756E61626C6520746F206A
:100DD000736574200000253032780020746F200A7B
:100DE00000737563636573733A2073657420656E71
:100DF0006372797074696F6E206B6579206F6E20F5
:100E0000696E7465726661636520006572726F72E7
:100E10003A20756E61626C6520746F207365742072
:100E2000656E6372797074696F6E206B65790065A9
:100E300072726F723A20756E61626C6520746F20F9
:100E40007061727365206B6579006572726F723ABA
:100E500020696E76616C6964206B65792073697AAC
:100E6000652E0A000A4E6F746963653A20736574D3
:100E700074696E672035313220626974206B657940
:100E80002E000A4E6F746963653A20736574746945
:100E90006E672032353620626974206B65792E00CA
:100EA0000A4E6F746963653A2073657474696E677E
:100EB0002031393220626974206B65792E000A4E28
:100EC0006F746963653A2073657474696E67203165
:100ED000323820626974206B65792E000A4E6F7477
:100EE0006963653A2073657474696E6720363420CF
:100EF000626974206B65792E000A4E6F74696365B0
:100F00003A2073657474696E67203536206269749F
:100F1000206B65792E00256C750A003078253034F9
:100F20006C780A0020746F2000206F6E20696E7448
:100F30006572666163652000737563636573733AF8
:100F4000207365742000006572726F723A20756EAE
:100F500061626C6520746F20736574200065727225
:100F60006F723A20756E61626C6520746F207061DB
:100F70007273652076616C75652E0A4D75737420E9
:100F8000626520612033322D62697420756E736949
:100F9000676E656420696E74656765722028646594
:100FA00063206F7220686578290A006572726F721B
:100FB0003A20756E61626C6520746F207061727387
:100FC000652076616C75652E0A4D757374206265B7
:100FD00020612033322D62697420756E7369676EEB
:100FE000656420696E746567657220286465632096
:100FF0006F7220686578290A005258322064617443
:10100000617261746500646174617261746500503D
:1010100048592062757379006C696E6B206368654E
:10102000636B006F74616100636865636B73756DFA
:1010300000656E6372797074696F6E206B657900FC
:10104000656E6372797074696F6E004343412074FA
:1010500068726573686F6C64205B696E2064426DB2
:101060005D0043534D412072657472696573006D74
:1010700061782E2072657472616E736D6973736925
:101080006F6E7300545820706F776572205B696EC5
:101090002064426D5D006E6574776F726B206964C9
:1010A000656E746966696572004D545500686F70AD
:1010B000206C696D697400706167650066726571A6
:1010C00075656E6379205B696E20487A5D006368A0
:1010D000616E6E656C00736F757263652061646428
:1010E00072657373206C656E67746800417070453B
:1010F0005549004E776B534B657900417070534BE7
:101100006579004170704B6579006C6F6E67206186
:10111000646472657373002873686F727429206148
:101120006464726573730020746F2025730A002055
:101130006F6E20696E7465726661636520007375F9
:1011400063636573733A207365742000006572727F
:101150006F723A20756E61626C6520746F207365E2
:101160007420006572726F723A20756E61626C65F0
:1011700020746F207061727365206164647265739E
:10118000732E0A4D757374206265206F6620666F3A
:10119000726D6174205B302D39612D66412D465D85
:1011A0007B327D283A5B302D39612D66412D465DBD
:1011B0007B327D292A0A28686578207061697273FC
:1011C0002064656C696D6974656420627920636F61
:1011D0006C6F6E73290020202020202053657473CB
:1011E00020616E206861726477617265207370653A
:1011F00063696669632073706563696669632076F5
:10120000616C75650A2020202020203C6B65793EAA
:10121000206D6179206265206F6E65206F66207495
:10122000686520666F6C6C6F77696E670A20202096
:10123000202020202A20226164647222202D207325
:10124000657473202873686F7274292061646472F6
:101250006573730A202020202020202A2022616428
:1012600064725F6C6F6E6722202D2073657473202B
:101270006C6F6E6720616464726573730A2020204E
:10128000202020202A2022616464725F73686F72BC
:101290007422202D20616C69617320666F72202298
:1012A00061646472220A202020202020202A20222B
:1012B0006363615F7468726573686F6C6422202D6C
:1012C00020736574204544207468726573686F6C80
:1012D0006420647572696E672043434120696E2003
:1012E00064426D0A202020202020202A20226672BD
:1012F000657122202D207365747320746865202227
:101300006368616E6E656C222063656E7465722021
:101310006672657175656E63790A20202020202031
:10132000202A20226368616E6E656C22202D207356
:1013300065747320746865206672657175656E6387
:1013400079206368616E6E656C0A20202020202061
:10135000202A20226368616E22202D20616C696141
:101360007320666F7220226368616E6E656C220A5C
:10137000202020202020202A2022636865636B73B0
:10138000756D22202D2073657420636865636B730F
:10139000756D6D696E67206F6E2D6F66660A202011
:1013A00020202020202A202263736D615F726574E3
:1013B0007269657322202D20736574206D61782E0B
:1013C000206E756D626572206F66206368616E6E57
:1013D000656C2061636365737320617474656D70FF
:1013E00074730A202020202020202A2022656E638A
:1013F0007279707422202D207365742074686520C2
:10140000656E6372797074696F6E206F6E2D6F6692
:10141000660A202020202020202A2022686F705F6A
:101420006C696D697422202D2073657420686F705B
:10143000206C696D69740A202020202020202A2039
:1014400022686C22202D20616C69617320666F72A6
:101450002022686F705F6C696D6974220A202020F9
:10146000202020202A20226B657922202D207365E0
:10147000742074686520656E6372797074696F6E2C
:10148000206B657920696E206865786164656369A1
:101490006D616C20666F726D61740A2020202020BF
:1014A00020202A20226D747522202D204950763666
:1014B000206D6178696D756D207472616E736974E9
:1014C000696F6E20756E69740A202020202020200C
:1014D0002A20226E696422202D2073657473207483
:1014E0006865206E6574776F726B206964656E74D1
:1014F000696669657220286F7220746865205041A2
:101500004E204944290A202020202020202A202261
:101510007061676522202D207365742074686520D2
:101520006368616E6E656C2070616765202849454F
:101530004545203830322E31352E34290A202020DE
:10154000202020202A202270616E22202D20616C14
:1015500069617320666F7220226E6964220A2020FE
:1015600020202020202A202270616E5F69642220C2
:101570002D20616C69617320666F7220226E696430
:10158000220A202020202020202A20227068795F33
:101590006275737922202D207365742062757379CA
:1015A000206D6F6465206F6E2D6F66660A202020A7
:1015B000202020202A2022706F77657222202D2083
:1015C000545820706F77657220696E2064426D0AEE
:1015D000202020202020202A202272657472616E33
:1015E0007322202D206D61782E206E756D626572DC
:1015F000206F662072657472616E736D69737369B2
:101600006F6E730A202020202020202A202273724F
:10161000635F6C656E22202D20736574732074687F
:101620006520736F7572636520616464726573739E
:10163000206C656E67746820696E20627974650A33
:10164000202020202020202A20227374617465220B
:10165000202D207365742074686520646576696345
:10166000652073746174650A0075736167653A205B
:101670002573203C69665F69643E20736574203C75
:101680006B65793E203C76616C75653E0A000A20E8
:1016900020202020202020202000257300257300FA
:1016A00000536F75726365206164647265737320A3
:1016B0006C656E6774683A202575004C322D504475
:1016C000553A25752020002043534D412052657422
:1016D000726965733A2025752000206D61782E208F
:1016E00052657472616E732E3A2025752000205366
:1016F000746174653A20257320002054582D506F72
:101700007765723A20256964426D200025732000B8
:101710004C6F6E67204857616464723A2000204C19
:10172000696E6B3A202573200020525353493A20AA
:1017300025642000204E49443A2030782578200046
:1017400020506167653A202575200020467265713A
:1017500075656E63793A20256C75487A20002043C0
:1017600068616E6E656C3A202575200020485761CF
:101770006464723A20257320002000496661636525
:101780002020006572726F723A20696E76616C6912
:101790006420696E74657266616365206769766549
:1017A0006E00832D80930C3C822D80930D3C112480
:1017B0001FBECFEFD1E8DEBFCDBF00E00CBF18E108
:1017C000A0E0B2E0E0E5F2EF00E00BBF02C007905E
:1017D0000D92AE38B107D9F72CE3AEE8B8E101C0FD
:1017E0001D92AC30B207E1F70E9474110C94267977
:1017F0000E94FE0B0C9426790C94FA108DEC93E168
:101800000E94387268E070E08EE099E10E94E61A6A
:1018100087E495E10E9438720E947B3D86E992E060
:101820000E9438720E94F3308FE49BE00E9438726D
:1018300040E850E06EE878E184EE93E00E940843CF
:10184000F7CF21E0FC012287089522E0FC012287E6
:1018500085A196A10C94121D0F931F93CF93DF9334
:10186000EC018B010F960E94356C6D857E85EB85B2
:10187000FC85A801CE0119958DA19EA1DF91CF9184
:101880001F910F910C94121DCF92DF92EF92FF9255
:101890000F931F93CF93DF93EC01670178011A86B2
:1018A0007C876B875E874D8780918D1D90918E1D03
:1018B0009EA38DA31982188280914E1990914F1981
:1018C000AC014F5F5F4F50934F1940934E198FA358
:1018D0008CE29CE09D838C83D987C8873F832E83CD
:1018E000BE016E5F7F4F80E19BE30E94390F85E26E
:1018F0009CE09AA389A3DCA3CBA3B701A60184E053
:1019000076956795579547958A95D1F700E010E051
:101910009801CE010F960E945C6CDF91CF911F91D0
:101920000F91FF90EF90DF90CF900895CF93DF93CA
:10193000EC010F960E94356CBE016E5F7F4F80E117
:101940009BE3DF91CF910C94780FCF93DF93EC0161
:101950002A85211103C00E94FC1CFACF81E090E08F
:10196000213011F480E090E0919581959109DF910B
:10197000CF910895AF92BF92CF92DF92EF92FF92F4
:101980000F931F93CF93DF93CDB7DEB7A9970FB611
:10199000F894DEBF0FBECDBF6C015B0178018901F9
:1019A0009A0140E050E061E27CE0CE0101960E94A5
:1019B000440CBA82A98281E089A7BE01675D7F4F8E
:1019C00085EB94E30E94FF1AC6010E94320EC50106
:1019D0000E940771AC01B501C6010E94EA0D41E009
:1019E00050E06EE374E0C6010E94EA0D85EB94E3DB
:1019F0000E94421BCE0101960E94A50C6C01CE01F3
:101A000001960E94960CC601A9960FB6F894DEBF07
:101A10000FBECDBFDF91CF911F910F91FF90EF903F
:101A2000DF90CF90BF90AF9008950F931F938901DF
:101A30009A0149E457E10E94BA0C1F910F91089551
:101A40000C94E3290F931F93CF93C82F082F880F6F
:101A5000110BC8010E94A070892B21F4CA3011F02B
:101A6000CD3051F46091083C7091093CC801CF9190
:101A70001F910F910C947E711F92CF9380E494E09C
:101A80009F938F930E94FC710F900F900F900F9077
:101A9000CF911F910F910895EF92FF920F931F9393
:101AA000CF93DF938C017B01EC01CE01801B910B66
:101AB0008E159F0534F48991882319F00E94220D18
:101AC000F4CFDF91CF911F910F91FF90EF90089588
:101AD000CF92DF92EF92FF921F93CF93DF937C011F
:101AE0006B01EC01CE019E012E193F092C153D051D
:101AF000C4F419911123A9F041E050E06EE374E0C1
:101B00000E941071892B49F46091083C7091093C46
:101B10008AE090E00E947E71E5CF812F0E94220D25
:101B2000E1CFDF91CF911F91FF90EF90DF90CF90A9
:101B30000895EF92FF920F931F93CF93DF93EC01E1
:101B40008B01EC80FD80C7010E940771AC01B701D9
:101B5000C8010E941071892B49F4EA81FB81B80108
:101B60008E819F81199581E090E002C080E090E035
:101B7000DF91CF911F910F91FF90EF9008958F9279
:101B80009F92AF92BF92CF92DF92EF92FF920F930C
:101B90001F93CF93DF93EC016B0149015A01B80108
:101BA000A701DB86CA860E94C5298E0120E23DE09E
:101BB000B501A401C6010E942D17DF91CF911F919D
:101BC0000F91FF90EF90DF90CF90BF90AF909F90DC
:101BD0008F900895EF92FF920F931F93CF93DF930F
:101BE0007C018B01EA01BA014135510510F060E535
:101BF00070E0C8010E94680DAE01B801F70182854E
:101C00009385DF91CF911F910F91FF90EF900C94EE
:101C10008717EF92FF920F931F93CF93DF937C016F
:101C2000EB01CB010E9407718C01AC01BE01F701F1
:101C3000828593850E94871741E050E06EE374E04F
:101C4000F701828593850E948717B801CE010E9413
:101C5000680D80E090E0DF91CF911F910F91FF9090
:101C6000EF900895EF92FF920F931F93CF93DF931E
:101C7000CDB7DEB760970FB6F894DEBF0FBECDBF0D
:101C80007C0100E117E220E030E040E150E0BE01DD
:101C90006F5F7F4FC7010E94312A1816190634F46E
:101CA000BC01CE0101960E944C0DEBCF60960FB6A1
:101CB000F894DEBF0FBECDBFDF91CF911F910F9182
:101CC000FF90EF9008952F923F924F925F927F92F4
:101CD0008F929F92AF92BF92CF92DF92EF92FF923C
:101CE0000F931F93CF93DF934C016B015A01722E18
:101CF0001701280160E070E0C6010E94C670E6018D
:101D0000A114B10451F19201810141E050E0BE0102
:101D1000C4010E94312A81309105C9F461E070E06C
:101D2000CE010E944C0D88818D3019F471100AC0CB
:101D3000E7CF8A3039F41882CE018C199D0997FFBC
:101D400010C00DC0219621E0A21AB108D9CF823B64
:101D50009F4FB1F682EB9FEF02C08FEF9FEFF6012E
:101D60001082DF91CF911F910F91FF90EF90DF9044
:101D7000CF90BF90AF909F908F907F905F904F904B
:101D80003F902F9008954F925F926F927F928F9223
:101D90009F92AF92BF92CF92DF92EF92FF920F93FA
:101DA0001F93CF93DF93EC014B016A0159010E940D
:101DB000320EA8019701B401CE010E94090E0097CE
:101DC00071F420E0A501B601CE010E94630E0097D8
:101DD00031F420E0A501B601CE010E94630EDF912F
:101DE000CF911F910F91FF90EF90DF90CF90BF9018
:101DF000AF909F908F907F906F905F904F900895DD
:101E0000EF92FF920F931F93CF93DF93CDB7DEB77F
:101E1000C054D1090FB6F894DEBF0FBECDBF790113
:101E20008A0120E430E0AE014F5F5F4F0E94C30E95
:101E30001816190684F469E477E1CE0101960E9430
:101E4000D87021E030E0892B11F420E030E08827C1
:101E50009927821B930BC05CDF4F0FB6F894DEBF4F
:101E60000FBECDBFDF91CF911F910F91FF90EF90EB
:101E700008950F931F93CF93DF938C01EB0120976D
:101E800019F465EE71E006C08C819D81009731F4F4
:101E900066EE71E087E694E00E94BB180E9407712D
:101EA000892B19F467EE71E0F5CF8A819B81892B2C
:101EB00019F468EE71E0EECFD8011C96ED91FC911B
:101EC0001D97309759F080819181998388831C9662
:101ED000ED91FC911D97D183C08302C0D983C88343
:101EE000F801D587C487DF91CF911F910F91089595
:101EF000CF93DF93EC01AC85BD85109769F18D918F
:101F00009C9111976817790761F46A177B0719F498
:101F10001D861C8621C0FB01808191818D939C933D
:101F20001BC0FD010190F081E02D80819181681737
:101F3000790721F0AE17BF07A9F70EC0309761F0FF
:101F4000DB018D919C91918380838C859D856817A1
:101F5000790711F4FD87EC87DF91CF9108954F92B7
:101F60005F926F927F92AF92BF92CF92DF92EF9289
:101F7000FF920F931F93CF93DF936C012A013B01D4
:101F8000E12CF12CC0E0D0E0CE01805B964E5C01EC
:101F90009301820141E050E0BC01C6010E94312A58
:101FA00097FD32C0F50180818A3061F3F0E5EF16CC
:101FB000F10444F461E070E0C5010E944C0D8FEF24
:101FC000E81AF80A2196FE01E05BF64E1082F6014F
:101FD000048515850115110599F0F801008111811D
:101FE00060E579E1C8010E94990D892B39F4F60169
:101FF000848595850817190781F702C0012B21F404
:10200000CF37D10509F6BCCFDF91CF911F910F914A
:10201000FF90EF90DF90CF90BF90AF907F906F9048
:102020005F904F900895CF92DF92EF920F931F939E
:10203000CF93DF93811104C06A3929F483EC01C086
:1020400088EB9FEF1BC089016A01C62F80E090E0FA
:102050000E943C14009791F44C2F50E0E12C960123
:1020600068E570E080E090E00E94016DD82FC92FF4
:1020700080E090E00E9458148D2F9C2FDF91CF912B
:102080001F910F91EF90DF90CF900895AB0128E062
:1020900030E068E90C94131080910D3C80FF18C06B
:1020A000E091471DF091481D309729F0828D938D66
:1020B000803891054CF087E794E09F938F930E94BE
:1020C000FC710F900F9004C088E894E00E94387271
:1020D00080910D3C81FF18C0E091471DF091481D93
:1020E000309729F0828D938D803891054CF084ECE7
:1020F00094E09F938F930E94FC710F900F9004C007
:1021000088E894E00E94387280910D3C82FF18C0EC
:10211000E091471DF091481D309729F0828D938DF5
:10212000803891054CF085ED94E09F938F930E9449
:10213000FC710F900F9004C088E894E00E94387200
:1021400080910D3C83FF27C080910C3C8A7AE091FE
:10215000471DF091481D882351F0309729F0828D5A
:10216000938D8038910554F086EE94E00EC0309740
:1021700051F0828D938D803891052CF488E894E09D
:102180000E94387208C087EF94E09F938F930E945B
:10219000FC710F900F9080910D3C84FF18C0E0916E
:1021A000471DF091481D309729F0828D938D80381E
:1021B00091054CF088E095E09F938F930E94FC710D
:1021C0000F900F90089588E894E00C943872089569
:1021D0000E944C10A8950FB6F894A89580916000C5
:1021E000886180936000109260000FBE0E94981872
:1021F0000C94546D1F920F920FB60F9211240E94EF
:102200004C109091BF0080914F011F929F931F929D
:102210008F938AE395E09F938F930E94FC71909136
:1022200051018091E0001F929F931F928F938EE542
:1022300095E09F938F930E94FC719BB38CB31F9288
:102240009F931F928F9389E795E09F938F930E94AE
:10225000FC71749860E972E080E00E94811B1F921B
:102260000F920FB60F9211240BB60F922F933F933C
:102270004F935F936F937F938F939F93AF93BF938E
:10228000EF93FF938091D01980688093D019E091EB
:10229000471DF091481D309729F0828D938D80382D
:1022A00091054CF081E995E09F938F930E94FC711A
:1022B0000F900F9004C088E894E00E9438720E944A
:1022C0006712FF91EF91BF91AF919F918F917F9195
:1022D0006F915F914F913F912F910F900BBE0F9097
:1022E0000FBE0F901F9018950E94AF180C94001904
:1022F000240F351FF90131974FEA408331974EEF94
:10230000408345ED5CE131974083319750833197AD
:102310001082319780833197908331971082319763
:102320001082319780E88083319710823197108234
:1023300031971082C90183971292E817F907E1F7E4
:10234000F901B4976083319770838AE182938F5F3C
:102350008032E1F7C9018C9708950E94CC1B8FB79A
:1023600078948DB79EB72091040230910502821BAC
:10237000930B90930102809300028091023C909114
:10238000033C892B41F480910202909103029093C7
:10239000033C8093023CA091471DB091481DCD9114
:1023A000CDBFDD91DEBFFF91EF91DF91CF91BF9166
:1023B000AF919F918F917F916F915F914F913F91DD
:1023C0002F911F910F91FF90EF90DF90CF90BF90D2
:1023D000AF909F908F907F906F905F904F903F90C5
:1023E0002F901F900F900CBE0F900BBE0F900FBE42
:1023F0000F9008958091D01987FD62C00F920FB69B
:10240000F8940F920BB60F920CB60F921F921124F4
:102410002F923F924F925F926F927F928F929F92F4
:10242000AF92BF92CF92DF92EF92FF920F931F93E2
:102430002F933F934F935F936F937F938F939F93CC
:10244000AF93BF93CF93DF93EF93FF93A091471D7B
:10245000B091481D0DB60D920EB60D920E94CC1B88
:10246000A091471DB091481DCD91CDBFDD91DEBF3C
:10247000FF91EF91DF91CF91BF91AF919F918F919C
:102480007F916F915F914F913F912F911F910F918C
:10249000FF90EF90DF90CF90BF90AF909F908F9084
:1024A0007F906F905F904F903F902F901F900F9074
:1024B0000CBE0F900BBE0F900FBE0F9008950895A5
:1024C00081E090E09093461D8093451D0895809192
:1024D000D0198F778093D0198091451D9091461D1A
:1024E000892B09F461C00F920FB6F8940F920BB6C6
:1024F0000F920CB60F921F9211242F923F924F927F
:102500005F926F927F928F929F92AF92BF92CF9283
:10251000DF92EF92FF920F931F932F933F934F936E
:102520005F936F937F938F939F93AF93BF93CF935B
:10253000DF93EF93FF93A091471DB091481D0DB617
:102540000D920EB60D920E94CC1BA091471DB0912A
:10255000481DCD91CDBFDD91DEBFFF91EF91DF91A1
:10256000CF91BF91AF919F918F917F916F915F912B
:102570004F913F912F911F910F91FF90EF90DF901E
:10258000CF90BF90AF909F908F907F906F905F9013
:102590004F903F902F901F900F900CBE0F900BBE4E
:1025A0000F900FBE0F9018950895282F22952F7029
:1025B00033E0239FC0011124273010F48296089540
:1025C00083519F4F0895CF93DF93982F9F70C1E061
:1025D000D0E001C0CC0F9A95EAF76230A9F06330E1
:1025E00069F0611120C00E94D512FC012291C095B2
:1025F0002C232083FC012081C22311C00E94D5120C
:10260000FC018291C82B0BC00E94D512FC012291C3
:102610003C2F309523232083FC012081C22BC083D3
:1026200080E090E002C08FEF9FEFDF91CF9108959F
:10263000CF93C82F0E94D512FC014081CF7021E0BA
:1026400030E001C0220FCA95EAF7242B2083CF91F6
:102650000895CF93C82F0E94D512FC014081CF70FE
:1026600021E030E002C0220F331FCA95E2F7209527
:10267000309524232083CF91089584E98093BC0072
:102680008091BC0084FDFCCF1092BC00089594EAB8
:102690009093BC009091BC0097FFFCCF9091B90043
:1026A000987F983051F09091B900987F903129F03F
:1026B0000E943D138FEF9FEF0895880F682B609362
:1026C000BB0084E88093BC008091BC0087FFFCCFF6
:1026D0008091B900887F883151F08091B900887F5E
:1026E000803429F00E943D138EEF9FEF089580E023
:1026F00090E00895892B31F06BE370E08AE995E072
:102700000E94BB181092D2191092D1198BB183601C
:102710008BB9809164008F77809364008091BC00B6
:102720008B7F8093BC0088E48093B8008091B900CF
:102730008C7F8093B9008091B9008093B90080911B
:10274000BC0084608093BC000895EF92FF920F93C9
:10275000CF93DF93762F7A01E901892B31F06BE873
:1027600070E08AE995E00E94BB1800FD2BC0452B64
:1027700061F1209751F103FF05C0F7019E0194EC30
:1027800044E815C061E0872F0E94471397FFF5CFFB
:1027900081EC9FEF1FC09093BC008091BC0087FF2D
:1027A000FCCF8091BB0081932150310931F0213061
:1027B000310589F74093BC00F0CF02FD09C00E94AB
:1027C0003D1306C080EC9FEF05C084EE9FEF02C072
:1027D00080E090E0DF91CF910F91FF90EF9008950E
:1027E000EF92FF920F93CF93DF93762FEA01790157
:1027F000892B31F06DEB70E08AE995E00E94BB18FF
:1028000000FD29C0209751F1232B41F103FF03C0A4
:10281000FE0124E809C060E0872F0E94471397FF5C
:10282000F7CF81EC9FEF22C0CF018C1B9D0B8E1543
:102830009F05BCF481918093BB002093BC008091E4
:10284000BC0087FFFCCF8091B900887F883261F39C
:1028500083EE9FEF0BC080EC9FEF08C084EE9FEFEC
:1028600005C002FF0E943D1380E090E0DF91CF9110
:102870000F91FF90EF900895CF93DF931F92CDB704
:10288000DEB7892B31F061EE70E08AE995E00E94B5
:10289000BB1881E08983BE016F5F7F4F81ED99E1B5
:1028A0000E94FF1A80E090E00F90DF91CF91089591
:1028B000892B31F069EE70E08AE995E00E94BB183F
:1028C00081ED99E10C94421B14BE8AEA90E0382E07
:1028D0008FB7F8949CE088E10FB6F894A8958093A0
:1028E00060000FBE90936000FFCF2091D019206848
:1028F0002093D01921E030E0A901062E02C0440F38
:10290000551F0A94E2F7FC01EE0FFF1FE80FF91FB5
:1029100002C0440F551FEA95E2F7E091D319F091F8
:10292000D4194E235F23452BA9F04CE0489FF001BA
:10293000499FF00D1124EA5FFD4F0280F381E02DE5
:102940004081DB01119601C0220FAA95EAF720957C
:10295000242320832CE0289FD001299FB00D11242F
:10296000AA5FBD4F1696ED91FC91179718968D9121
:102970009C91199719950C9467128F929F92AF9220
:10298000BF92CF92DF92EF92FF920F931F93DC01E1
:102990000397D8F4E9EBF5E090E0C12C84E2D82E5F
:1029A00084EFE82EF12C46015701019004C0B69443
:1029B000A794979487940A94D2F79F5F84169506FC
:1029C000A606B70629F0953071F78FEF9FEF1EC06E
:1029D0008CE08A9FF0018B9FF00D1124EA5FFD4F80
:1029E000A081B1811C9211961C92119712961C9293
:1029F000129715961C921E9214973783268311877F
:102A00000087928711969C9380E090E01F910F9130
:102A1000FF90EF90DF90CF90BF90AF909F908F90FE
:102A200008950F931F93CF93DF93633071050CF0DC
:102A30004FC0CFB7F8942CE0289FF001299FF00DEC
:102A40001124EA5FFD4F20813181DB011496AA0F2A
:102A5000BB1FA20FB31F11965C934E930481158187
:102A6000D801DC91AB014F5F5F4F21E030E0D9012D
:102A700002C0AA0FBB1F4A95E2F7AD015A2F50952D
:102A80005D23D8015C930280F381E02D5081452BBA
:102A9000408302C0220F331F6A95E2F7AC01440F56
:102AA000551F840F951F02C0220F331F8A95E2F72E
:102AB0008091D3199091D419282B392B3093D419A4
:102AC0002093D319F894C7FD789480E090E002C079
:102AD0008FEF9FEFDF91CF911F910F9108952FB747
:102AE000F8943CE0389FF001399FF00D1124EA5F23
:102AF000FD4F0190F081E02D84819581F89427FDB0
:102B0000789408951F920F920FB60F9211240BB66E
:102B10000F922F933F934F935F936F937F938F9376
:102B20009F93AF93BF93EF93FF9360E070E080E0DB
:102B300090E00E947514FF91EF91BF91AF919F912A
:102B40008F917F916F915F914F913F912F910F9056
:102B50000BBE0F900FBE0F901F9018951F920F92F3
:102B60000FB60F9211240BB60F922F933F934F93F2
:102B70005F936F937F938F939F93AF93BF93EF93E5
:102B8000FF9361E070E080E090E00E947514FF9197
:102B9000EF91BF91AF919F918F917F916F915F91D5
:102BA0004F913F912F910F900BBE0F900FBE0F9042
:102BB0001F9018951F920F920FB60F9211240BB60B
:102BC0000F922F933F934F935F936F937F938F93C6
:102BD0009F93AF93BF93EF93FF9362E070E080E029
:102BE00090E00E947514FF91EF91BF91AF919F917A
:102BF0008F917F916F915F914F913F912F910F90A6
:102C00000BBE0F900FBE0F901F9018951F920F9242
:102C10000FB60F9211240BB60F922F933F934F9341
:102C20005F936F937F938F939F93AF93BF93EF9334
:102C3000FF9360E070E081E090E00E947514FF91E6
:102C4000EF91BF91AF919F918F917F916F915F9124
:102C50004F913F912F910F900BBE0F900FBE0F9091
:102C60001F9018951F920F920FB60F9211240BB65A
:102C70000F922F933F934F935F936F937F938F9315
:102C80009F93AF93BF93EF93FF9361E070E081E078
:102C900090E00E947514FF91EF91BF91AF919F91C9
:102CA0008F917F916F915F914F913F912F910F90F5
:102CB0000BBE0F900FBE0F901F9018951F920F9292
:102CC0000FB60F9211240BB60F922F933F934F9391
:102CD0005F936F937F938F939F93AF93BF93EF9384
:102CE000FF9362E070E081E090E00E947514FF9134
:102CF000EF91BF91AF919F918F917F916F915F9174
:102D00004F913F912F910F900BBE0F900FBE0F90E0
:102D10001F9018951F920F920FB60F9211240BB6A9
:102D20000F922F933F934F935F936F937F938F9364
:102D30009F93AF93BF93EF93FF9360E070E082E0C7
:102D400090E00E947514FF91EF91BF91AF919F9118
:102D50008F917F916F915F914F913F912F910F9044
:102D60000BBE0F900FBE0F901F9018951F920F92E1
:102D70000FB60F9211240BB60F922F933F934F93E0
:102D80005F936F937F938F939F93AF93BF93EF93D3
:102D9000FF9361E070E082E090E00E947514FF9183
:102DA000EF91BF91AF919F918F917F916F915F91C3
:102DB0004F913F912F910F900BBE0F900FBE0F9030
:102DC0001F9018951F920F920FB60F9211240BB6F9
:102DD0000F922F933F934F935F936F937F938F93B4
:102DE0009F93AF93BF93EF93FF9362E070E082E015
:102DF00090E00E947514FF91EF91BF91AF919F9168
:102E00008F917F916F915F914F913F912F910F9093
:102E10000BBE0F900FBE0F901F9018952091D019E8
:102E200020682093D019FC01EE0FFF1FE254FA4FE7
:102E30000190F081E02D6681880F991F880F991FFE
:102E4000DC01AB52B64EED91FC91119712968D912B
:102E50009C91139719950C946712EF92FF920F9320
:102E60001F93CF93DF9379018230910508F046C01C
:102E700020E030E0E091D019E37019F021503109E1
:102E8000C9F7FC01EE0FFF1FEE0FFF1FEB52F64ECE
:102E9000F182E08213830283880F991FFC01E254C0
:102EA000FA4FC081D1811982188286E08A83DB01C2
:102EB000CA0180589B47A14EBF4FE3E0880F991F7E
:102EC000AA1FBB1FEA95D1F79A01AB01F4E0220FCC
:102ED000331F441F551FFA95D1F7BC01CD010E9445
:102EE000786D215031093D832C83EF2811F088ED56
:102EF00001C088E4898380E090E002C08FEF9FEFFB
:102F0000DF91CF911F910F91FF90EF900895CF9394
:102F1000DF939C0191E0022E01C0990F0A94EAF719
:102F2000DB01460F571F220F331FF901E254FA4FFE
:102F30009F01A417B507B1F0C081D181888185FFB9
:102F4000FDCF6FB7F8948091D019892B8093D01959
:102F5000F89467FD7894E901688179818D91EB019E
:102F60008E83E7CFDF91CF9108951F920F920FB616
:102F70000F9211240BB60F922F933F934F935F93B1
:102F80006F937F938F939F93AF93BF93EF93FF9331
:102F900080E090E00E940E17FF91EF91BF91AF91FA
:102FA0009F918F917F916F915F914F913F912F9161
:102FB0000F900BBE0F900FBE0F901F9018951F9291
:102FC0000F920FB60F9211240BB60F922F933F93CF
:102FD0004F935F936F937F938F939F93AF93BF9321
:102FE000EF93FF9381E090E00E940E17FF91EF9125
:102FF000BF91AF919F918F917F916F915F914F9111
:103000003F912F910F900BBE0F900FBE0F901F900E
:1030100018951F920F920FB60F9211240BB60F92B4
:103020002F933F934F935F936F937F938F939F93D0
:10303000AF93BF93EF93FF938091D0198E7F8068F9
:103040008093D0190E946712FF91EF91BF91AF91C9
:103050009F918F917F916F915F914F913F912F91B0
:103060000F900BBE0F900FBE0F901F9018951F92E0
:103070000F920FB60F9211240BB60F922F933F931E
:103080004F935F936F937F938F939F93AF93BF9370
:10309000EF93FF938091D0198D7F80688093D01932
:1030A0000E946712FF91EF91BF91AF919F918F9115
:1030B0007F916F915F914F913F912F910F900BBE38
:1030C0000F900FBE0F901F9018950E943C6A0E94AF
:1030D000B64282EC95E09F938F930E94FC710F9013
:1030E0000F900C949E54CF93DF931F92CDB7DEB711
:1030F00061E070E0CE0101960E94CE658981082EC4
:10310000000C990B0F90DF91CF910895CF93DF932F
:103110001F92CDB7DEB7898361E070E0CE010196E2
:103120000E94D46580E090E00F90DF91CF910895E8
:103130000E94BD65E6E0FCE388E392E0938382832E
:103140008AE292E09183808384ED95E00C9438725A
:103150008DB188618DB98EB188618EB90895E1E62F
:10316000F0E080E8808310820E94E8100E94A81896
:103170008FB7789408957F936F939F938F9386ED85
:1031800095E09F938F930E94FC716FED76E083E052
:103190000E94811BFC019FB7F89471836083F894AF
:1031A00097FD78940895FC012FB7F8948081918160
:1031B000680F791F71836083F89427FD78940895D0
:1031C000FC012FB7F89480819181AC01461B570B0D
:1031D00051834083F89427FD789408950E946518E0
:1031E00080EE95E09F938F930E94FC710E94FE0BEE
:1031F0000F900F9080E090E008950E945B6DFDCFEE
:103200008FB7F89481E2C82E86E0D82EE12CF12CFD
:103210000DEF18E12CE030E04FE060EC70E08DED58
:1032200099E10E948B1D9EE4C92E99E0D92E0EEEE5
:1032300018E12CE030E047E060E872E08DE99AE1C7
:103240000E948B1D0E94AD111F93CF93DF93EC0161
:10325000162F6CE00E942A1C8B8190E0F89417FDD9
:103260007894DF91CF911F910C94BB1CEF92FF9249
:103270001F93CF93DF937C01162FC091471DD091F0
:10328000481D69E0CE010E942A1CBE01C7010E94B0
:103290005C1DF89417FD7894DF91CF911F91FF90FA
:1032A000EF900C94401D0F931F93CF93DF93EC018D
:1032B0008B012FB7F894622F70E0E881F981309785
:1032C00091F08081918199838883CF010897FC01D7
:1032D000A285B38528E0F80101900D922A95E1F7C7
:1032E0000E94241935C08E819F81EC81FD818E1B47
:1032F0009F0BE885F985E817F90744F4452B59F148
:10330000CE0102960E9436196FB7F89480918D1DF8
:1033100090918E1DF801918380832A853B85AE8133
:10332000BF81CD0101969F838E8388859985A823CF
:10333000B92383E0AA0FBB1F8A95E1F7A20FB31F41
:1033400088E001900D928A95E1F7F89467FD7894F2
:1033500081E090E005C0F89427FD789480E090E04B
:10336000DF91CF911F910F910895CF93DF93EC01DF
:10337000DB012FB7F894622F70E0EC81FD818E8124
:103380009F818E179F0719F14A855B85CF010196B2
:103390009D838C8388859985E823F92383E0EE0F4C
:1033A000FF1F8A95E1F7E40FF51F88E001900D9269
:1033B0008A95E1F78A819B810097D9F0FC012081F1
:1033C00031813B832A8308970E94241915C0452B1D
:1033D00051F0E091471DF091481DB387A287CE01BF
:1033E0000E94361909C0F89427FD789480E090E097
:1033F00005C0F89427FD789481E090E0DF91CF91AB
:103400000895CF93DF93EC01A889B9898A899B89B4
:103410002E853F85AD01421B530B841795071CF485
:1034200080E090E022C09D012F5F3F4F398B288BB9
:10343000A823B923B7FDF4CFFB0183E0AA0FBB1F7C
:103440008A95E1F78C899D89A80FB91F88E00190C2
:103450000D928A95E1F78E819F8190689F838E837C
:10346000CE010E945D1E81E090E0DF91CF91089532
:10347000CF92DF92EF92FF920F931F93CF93DF9340
:10348000660F771FFB01E55BF24EC081D181609131
:103490008D1D70918E1DFC0171836083209731F426
:1034A000F89427FD78948FEF9FEF4AC0122F042FD6
:1034B0007C018A81843091F1C090471DD090481DD5
:1034C000BF01CE010E94011A009741F0F89417FD48
:1034D0007894F6018281863089F52EC0011104C0EE
:1034E000F89417FD78942CC0F601F386E286828169
:1034F000863011F065E001C066E0C6010E942A1C1A
:10350000B601CE010C960E945C1D8E819F81906851
:103510009F838E83CE010E945D1E0BC0AA85BB8552
:1035200088E001900D928A95E1F76CE0CE010E944F
:103530002A1CF89417FD78940E94FA1181E090E01B
:10354000DF91CF911F910F91FF90EF90DF90CF907F
:103550000895AF92BF92CF92DF92EF92FF921F93A6
:10356000CF93DF935C01EB017A0180918D1D9091E7
:103570008E1D4817590731F46FE071E086E296E03E
:103580000E94BB181FB7F894C090471DD090481DEB
:1035900066E0C6010E942A1CF601D387C28788E034
:1035A000F501DE0101900D928A95E1F7212F30E0BF
:1035B00041E0B701CE01DF91CF911F91FF90EF90D5
:1035C000DF90CF90BF90AF900C94381AE091471DD8
:1035D000F091481D958B848BCB010197682379234B
:1035E000672B31F06DE370E086E296E00E94BB1835
:1035F00017861686118A108A938B828B0895FF9204
:103600000F931F93CF93DF93EC01FFB6F89488815B
:103610009981892B41F48FEF9FEF99838883F894E8
:10362000F7FC789421C0FB018081882301F100918F
:10363000471D1091481D63E0C8010E942A1C888123
:103640009981019641F4C801089699838883F8010D
:103650001186108604C0B801CE010E945C1DF8944A
:10366000F7FC78940E94FA1181E090E005C0F8948C
:10367000F7FC789480E090E0DF91CF911F910F915B
:10368000FF900895FF920F931F93CF93DF93FFB6A0
:10369000F894DC01ED91FC91309739F0EF3FBFEFEA
:1036A000FB0761F4FC0111821082F894F7FC789416
:1036B000DF91CF911F910F91FF9008958C01808130
:1036C0009181D8018D939C93EF0128976CE0CE01F6
:1036D0000E942A1CF80180819181892B21F48FEFAF
:1036E0009FEF918380838B8190E0F894F7FC78942E
:1036F000DF91CF911F910F91FF900C94BB1C089507
:103700000895182FEB0180911D1D90911E1D892B8E
:1037100009F03CC081E090E090931E1D80931D1D38
:10372000133091F40EB6202D0DB6802D90E0922B23
:103730009F938F938EE996E09F938F930E94FC71E5
:103740000F900F900F900F90BE01812F0E94801B51
:10375000DF93CF9385EB96E09F938F930E94FC714C
:103760000E94C5408DED96E09F938F930E94FC715F
:1037700081ED96E09F938F930E94FC718DB79EB769
:1037800008960FB6F8949EBF0FBE8DBF8FB7F89402
:103790000E947F1B0E94586DCF93DF93A091471D1D
:1037A000B091481D1092461D1092451D2091211D7B
:1037B0003091221D80E090E020FD04C036952795D1
:1037C0000196FACF880F991FFC01EB5DF24E019034
:1037D000F081E02DC081D18128978BE08A83E09130
:1037E0001F1DF091201DAC17BD0749F4309771F1F2
:1037F000209761F5609104007091050024C0109736
:1038000091F012968C9112978B3021F48CE01296E5
:103810008C931297309739F060E070E014968D9198
:103820009C91159719956C817D8170938E1D609385
:103830008D1DD093481DC093471DE0911F1DF09131
:10384000201D309719F080E090E01995CE01DF91AE
:10385000CF9108950F931F93CF93DF93FC01828143
:103860006B30E0F18B3008F080C09F01285F3F4F44
:10387000838190E0880F991FDC01AB5DB24ECD9142
:10388000DC911197209751F04881598151874087E9
:103890000D90BC91A02D2D933C9302C031872087C1
:1038A000DC01AB5DB24E2D933C9381E090E0038050
:1038B00002C0880F991F0A94E2F7092E000CAA0B88
:1038C000BB0B0091211D1091221D2091231D3091D1
:1038D000241D802B912BA22BB32B3FC08B3008F4DF
:1038E00044C0A381B0E0AA0FBB1FAB5DB24ECD9127
:1038F000DC911197209769F088819981C817D907C1
:1039000019F41D921C9205C0DC018D919C91998344
:1039100088832381A22FB0E0AA0FBB1FAB5DB24EFC
:103920008D919C91892B09F581E090E002C0880F70
:10393000991F2A95E2F780959095092E000CAA0B05
:10394000BB0B0091211D1091221D2091231D309150
:10395000241D80239123A223B3238093211D9093C0
:10396000221DA093231DB093241D6283DF91CF916C
:103970001F910F910895E091471DF091481D2281FC
:103980002B3028F0238130E08217930768F4809170
:10399000D01987FF07C081E090E09093461D809387
:1039A000451D08950C94FA1108958FB7F894E0918D
:1039B0008D1DF0918E1DEE0FFF1FE55BF24E118203
:1039C00010828091491D90914A1D019790934A1D44
:1039D0008093491D60E08091471D9091481D0E9491
:1039E0002A1C1092481D1092471D0E94AD11909301
:1039F000201D80931F1D0895CF938091D01987FDBE
:103A00000FC0CFB7F89462E08091471D9091481D98
:103A10000E942A1CF894C7FD7894CF910C94FA1157
:103A2000CF9108951F93CF93DF931FB7F8949C0114
:103A30002150310920323105D0F4880F991FFC0143
:103A4000E55BF24EC081D181209789F08A81823076
:103A500071F46BE0CE010E942A1CF89417FD789453
:103A60008B8190E00E94BB1C81E090E005C0F8943F
:103A700017FD78948FEF90E0DF91CF911F9108951B
:103A80008FB7F894E091471DF091481D92819B30CB
:103A900070F0E381F0E0EE0FFF1FEB5DF24EA081CE
:103AA000B181109721F02D913C9131832083F894BE
:103AB00087FD78940C94FA11FB0122812B3030F0B1
:103AC00069E970E081EF96E00E94BB186381AF0165
:103AD000485F5F4FDC012D913C912115310541F08C
:103AE000D901189713967C91671710F0C901F2CF8E
:103AF00031872087FC01518340830895FC01208198
:103B000031812E173F0711F43296F9CF9F01281B00
:103B1000390BC90108954F925F927F928F929F92C5
:103B2000AF92BF92CF92DF92EF92FF920F931F93CB
:103B3000CF93DF93FC012B01522F403158F59B01AD
:103B40002C513109EC01C20FD31F53FF08C08C1751
:103B50009D0738F4DC018D939C930296F8CF9183F6
:103B600080839FB6F8948DE49DE1AA24A394B12CA0
:103B7000DC016D917D91CD01672B71F0BFEFAB1A28
:103B8000BB0A61E2A616B10499F7F89497FC789401
:103B90008FEB50C084EE4EC0B701C801752E842E45
:103BA0008F01F501EE0FFF1FE55BF24ED183C0835D
:103BB000BD82AC82A8010E947811998388831F8BF3
:103BC0000E8B5B8E4A8ED98EC88E8B821A82198696
:103BD00018861B861A861D861C861F861E86198AD5
:103BE000188A8FEF9FEF9B8B8A8B1D8A1C8A80918E
:103BF000491D90914A1D019690934A1D8093491D3D
:103C000070FE05C062E0CE010E942A1C0EC06CE06E
:103C1000CE010E942A1C72FC08C0F89497FC78948C
:103C2000882D90E00E94BB1C03C0F89497FC789408
:103C3000C50101C09FEFDF91CF911F910F91FF90C0
:103C4000EF90DF90CF90BF90AF909F908F907F903C
:103C50005F904F900895CF93E091471DF091481DDC
:103C6000CFB7F8942681378128233923232B61F499
:103C70009387828767E0CF010E942A1CF894C7FDD2
:103C80007894CF910C94FA11F894C7FD7894CF9161
:103C900008954FB7F894FC0120813181622373238A
:103CA000FB01E095F0952E233F23FC013183208317
:103CB000F89447FD7894CB010895CF93DF93FC01EE
:103CC000C285D3858281873019F0883031F01EC0DB
:103CD00026813781C223D3230CC0868197818C2310
:103CE0009D2331E020E08C179D0709F030E0C32FC1
:103CF000D22F209769F0CF016CE00E942A1C81E04E
:103D000090E09093461D8093451D02C0C0E0D0E036
:103D1000CE01DF91CF9108952091471D3091481D2C
:103D2000BC01C90106960C94491E0F931F93CF93B3
:103D3000DF93EC010091471D1091481D0E942B1E3E
:103D4000BE01C8010696DF91CF911F910F910C948F
:103D5000491ECF93FC01CFB7F89486819781682BD9
:103D6000792B77836683228533858281873019F0AA
:103D7000883021F01FC0622373230AC0622373239B
:103D800091E080E06217730709F090E0692F782FC7
:103D9000672B81F0CF016CE00E942A1C81E090E04B
:103DA0009093461D8093451DF894C7FD7894CF915C
:103DB0000C94FA11F894C7FD7894CF9108952F923E
:103DC0003F924F925F926F927F928F929F92AF92AB
:103DD000BF92CF92DF92EF92FF920F931F93CF93F8
:103DE000DF93CDB7DEB7A8970FB6F894DEBF0FBE4E
:103DF000CDBF28A73FA32A0135014601E02F00E2ED
:103E00000E942A6F2F83388749875A876B877C8760
:103E10008D879E879501A601B7018E2F912F0E9455
:103E20002A6F2F87388B498B5A8B6B8B7C8B8D8BB2
:103E30009E8BE12CF12C00E010E02F813885498524
:103E40005A856B857C858D859E850E94B46D2F8BF0
:103E5000388F498F5A8F6D8F7E8F8F8F98A3A8A42C
:103E6000BFA062012F85388949895A896B897C896D
:103E70008D899E890E94B46D19014B8F5C8F69A357
:103E80007AA38BA39CA32F89388D498D5A8D60E02E
:103E900070E080E090E05101CB8CDC8C0E94466F9A
:103EA00029833A834B835C836D837E838DA39EA39A
:103EB000A8A4BFA062019301A40160E070E080E0CB
:103EC00090E00E94B46D00E20E942A6F59016A01DD
:103ED0007B018C0129813A814B815C816D817E81DE
:103EE0008DA19EA10E94466F00E20E942A6F298345
:103EF0003A834B835C836D837E838EA39DA32F893E
:103F0000388D498D5A8D6D8D7E8D8F8D98A10E9433
:103F10002A6F39014A01B62FA72FF82FE92F9101F7
:103F20004B8D5C8D69A17AA18BA19CA10E942A6F07
:103F300059016A017B018C019301A4016B2F7A2F37
:103F40008F2F9E2F0E94466F19012A013B014C01C1
:103F5000AF84B888C988DA88EB88FC880D891E8907
:103F60002F81388549855A856B857C858D859E8511
:103F70000E94B46D59016A017B018C019101A2017B
:103F8000B301C4010E94466F59016A017B018C0193
:103F900029813A814B815C816D817E818EA19DA1B9
:103FA0000E94466FA8960FB6F894DEBF0FBECDBF35
:103FB000DF91CF911F910F91FF90EF90DF90CF9005
:103FC000BF90AF909F908F907F906F905F904F9039
:103FD0003F902F90089562E070E00C94A91E90919C
:103FE000460298133CC06115710581F0A091911DA6
:103FF000B091921DFB01E355F04E808190E0982F27
:1040000088276181862BA817B90749F54115510505
:1040100031F0FA01E355F04E8081811112C0211573
:10402000310529F41092901D10928F1D10C0F901D6
:10403000E355F04E808190E0982F88272181822BD4
:1040400002C08EEF9FEF9093901D80938F1D61E0D3
:1040500070E08091A71D9091A81D0C94A91E089551
:10406000CF92DF92FF920F931F93CF93DF936B0159
:10407000F42E809346028091471D9091481D9093A5
:10408000A81D8093A71D83E090E00E948C1EC4E0D1
:10409000D0E02DEA31E2A6016DEA7DE183EC91E208
:1040A0000E94D06300E010E098014CE15EE46EE015
:1040B00070E083E99DE10E945C6C83E090E00E94E7
:1040C000951E80FF09C083E99DE10E94356CC09177
:1040D0008F1DD091901D04C02197D9F6CCEFDFEF52
:1040E0008FEF80934602FF2021F089EA9DE10E9434
:1040F000421BCE01DF91CF911F910F91FF90DF9076
:10410000CF9008958F3F910530F48F5F8093AD1D60
:1041100081E090E0089521E02093AD1D03969093F7
:10412000AE1D8093AF1D83E090E00895CF93DF93A1
:104130001F92CDB7DEB781E08983BE016F5F7F4FED
:1041400089EA9DE10E94FF1A0F90DF91CF910895B7
:104150007F928F929F92AF92BF92CF92DF92EF9217
:10416000FF920F931F93CF93DF93EC01762E6A019A
:1041700059014701452B61F0232B21F0C7018F78AE
:10418000892B31F062EE70E08FEF96E00E94BB1851
:104190000E9496208091C1219091C221892B09F023
:1041A0008FC046E150E0BE018DEA91E20E94BD70F1
:1041B000772019F084E0782E01C0712CC114D1044D
:1041C00019F0272D2860722EE0901A22F0901B2201
:1041D000C7010E940771EC012696C093AD1D84E0D3
:1041E0008093AE1D7092AF1D81E08093B01D8093CF
:1041F000B11D88E68093B21DC7010E940771AC0112
:10420000B70183EB9DE10E94BD70C114D10409F494
:104210004AC0C6010E9407717C01853C910528F4C3
:10422000C80104968130924030F01092C221109261
:10423000C1212DEF46C040E0BE0186E00E94302043
:104240000097C1F5E7012296CE010E9482207C01F1
:10425000C80FD91FFC01E355F24E87E080838182AD
:10426000C6010E940771AC01B601C7018155924E8B
:104270000E94BD7040E0BE0188E00E94302000979F
:10428000C9F4E8012196CE010E948220C80FD91FEF
:10429000FC01E355F24E29E02083A801B5018255C7
:1042A000924E0E94BD7041E0BE0185E00E94302028
:1042B000009749F01092C2211092C121282F05C009
:1042C0002FEF9FEF02C020E090E0822FDF91CF918F
:1042D0001F910F91FF90EF90DF90CF90BF90AF9024
:1042E0009F908F907F9008958091C1219091C221DD
:1042F000892BB9F00E94962082E08093AD1D88E161
:104300008093AE1D41E062E070E00E9430208C3F5F
:104310002FEF920741F41092C2211092C1218CEF2D
:1043200001C08FEF9FEF08950F931F93CF93DF93FB
:10433000EC01892B21F088819981009731F468E3A1
:1043400071E08FEF96E00E94BB182091C12130915F
:10435000C221232B09F443C00E940771853C9105BB
:1043600008F03FC00E949620888199810E940771C1
:104370008A5F8093AD1D8AE08093AE1D1092AF1DC1
:104380001092B01D80914702909148029093B11D08
:104390008093B21D9C012F5F3F4F309348022093C2
:1043A00047029093921D8093911D08811981C80145
:1043B0000E940771AC01B80183EB9DE10E94BD70C2
:1043C0006091AD1D70E041E08BE00E943020181636
:1043D00019064CF49B838A8380E090E004C08FEF41
:1043E00001C08DEF9FEFDF91CF911F910F91089545
:1043F000CF92DF92EF92FF920F931F93CF93DF93B1
:10440000EC016B018A0179018A819B81892B49F03A
:10441000672B39F04115510521F0C9018F78892B9F
:1044200031F067E571E08FEF96E00E94BB18809154
:10443000C1219091C221892B09F457C0473F5140B7
:1044400008F056C026FD57C00E949620C801069667
:104450000E948220FC01E355F24E2CE02083E18291
:104460002A813B81FC01E155F24E3083218320916A
:10447000470230914802FC01EF54F24E3083218311
:10448000A9014F5F5F4F509348024093470230931A
:10449000921D2093911DEC012696A801B601CE0134
:1044A0008355924E0E94BD70B8016C0F7D1FE5FED2
:1044B0000CC041E08DE0DF91CF911F910F91FF90F3
:1044C000EF90DF90CF900C9430202DEA31E2AB01D9
:1044D0006DEA7DE183EC91E20E94D06389EA9DE17F
:1044E0000E94421B80E090E008C08FEF9FEF05C064
:1044F0008DEF9FEF02C08BEF9FEFDF91CF911F9168
:104500000F91FF90EF90DF90CF9008950F931F933E
:10451000CF93DF93EC018B01892B61F08E819F811A
:10452000892B41F08A819B81009721F09B012C719E
:10453000232B31F06CE771E08FEF96E00E94BB18FF
:104540002091C1213091C221232B09F45CC00E942B
:104550000771853C910508F058C00E9496208A8119
:104560009B810E9407718B5F8093AD1D82E18093D8
:10457000AE1D0093AF1D8091470290914802909329
:10458000B01D8093B11D9C012F5F3F4F30934802B7
:10459000209347029093921D8093911D0A811B8165
:1045A000C8010E940771AC01B80182EB9DE10E9435
:1045B000BD706091AD1D70E040E083E10E9430204D
:1045C0008C0118161906CCF49D838C839091AB1D39
:1045D0008091AC1DE92FF82F309739F0EC17FD07CB
:1045E00061F00190F081E02DF7CF98838983D0931B
:1045F000AC1DC093AB1D00E010E089EA9DE10E9474
:10460000421BC80104C08FEF01C08DEF9FEFDF9107
:10461000CF911F910F9108952F923F924F925F92E9
:104620006F927F928F929F92AF92BF92CF92DF92C2
:10463000EF92FF920F931F93CF93DF93CDB7DEB727
:10464000E5970FB6F894DEBF0FBECDBF182F092F28
:104650006B01CB010E9407710197479730F067EF1C
:1046600071E08FEF96E00E94BB187E0127E1E20E19
:10467000F11C86E1D7011D928A95E9F784E090E06C
:10468000988F8F8B1BA70CA7D0921B22C0921A2247
:104690008BEE9FE19093A61D8093A51D1092A81DFF
:1046A0001092A71D1092AA1D1092A91D0E9496207B
:1046B00020E030E040E050E0B70183EC91E20E945E
:1046C000C76197FF25C00F931F9389E297E09F93DF
:1046D0008F930E94FC710F900F900F900F90E596B2
:1046E0000FB6F894DEBF0FBECDBFDF91CF911F9103
:1046F0000F91FF90EF90DF90CF90BF90AF909F9081
:104700008F907F906F905F904F903F902F90089583
:1047100089EA9DE10E94421B0E94376A4B015C01BD
:1047200024E0880C991CAA1CBB1C2A95D1F7412CAB
:104730003AE2532E35E7632E35E1732E42E0D42E54
:1047400053E0C52EFE0131967F019301820140E0C6
:1047500052E06DEA7FE183EC91E20E94B36297FF41
:104760000DC0823B9F4F09F404C128E537E03F9319
:104770002F930E94FC710F900F90E4CF823091052F
:104780000CF4F7C08230910521F42091AD1F213047
:10479000C9F24091AD1F413029F0242E312C01E0A7
:1047A00010E009C02090AE1F3090AF1F32242324A8
:1047B000322403E010E08215930520F20817190750
:1047C00008F6C8018355904E9DAB8CABDC01EC9193
:1047D0008E2F90E0FC013597E931F10508F0C9C052
:1047E0008827E656FF4F8F4F0C949A6D20E030E0FB
:1047F00042E050E060E070E085E0B9C020E030E0E9
:1048000040E050E060E070E086E0B1C020E030E0E1
:1048100040E050E060E070E088E0A9C022E030E0D5
:1048200046E050E064E070E08BE0A1C02801B6E013
:104830004B0E511C2414350408F49BC0F801E155BB
:10484000F04E7F016080718023E837E03F932F9323
:104850000E94FC7187E0EFE8F2E0DE019D96019096
:104860000D928A95E1F744E050E0B701CE018F96B2
:104870000E94BD70ACA9BDA911962C91822F8D7C90
:104880000F900F90C9F01F922F93EFE8F7E0FF937E
:10489000EF930E94FC71CBAA2DEA31E247E050E091
:1048A000BE01635D7F4F83EC91E20E94D0630F9065
:1048B0000F900F900F905DC0E090AB1DF090AC1D7D
:1048C000872D90E09629E114F10409F495C0F701D1
:1048D000448155818417950709F49BC0D701ED9059
:1048E000FC90F1CF20E030E046E050E064E070E082
:1048F0008DE03DC023E030E047E050E065E070E04F
:1049000083E135C020E030E040E050E062E070E05C
:1049100085E12DC0DDA6B7E1BEA79E012F5F3F4F09
:1049200042E050E06EC080914602883111F510924D
:10493000C2211092C1211092901D10928F1D61E032
:1049400070E08091A71D9091A81D0E94A91E11C022
:1049500020E030E040E050E060E070E08BE107C034
:1049600020E030E040E050E060E070E08DE10E9447
:10497000EF1F0E94376A2B013C0184E0440C551C58
:10498000661C771C8A95D1F7D301C2018819990951
:10499000AA09BB0981159A42A547B541F8F0809153
:1049A000C1219091C221892B51F453014201412C24
:1049B0009AE2592E95E7692E95E1792EC3CEDDA6B0
:1049C000F6E1FEA72DEA31E242E050E0BE01635D70
:1049D0007F4F83EC91E20E94D063E7CFD501C40101
:1049E000965DAA48BA4E9C01AD01241935094609C5
:1049F000570929013A01A6CEDBAA2DEA31E247E0A8
:104A000050E0BE01635D7F4F83EC91E20E94D06372
:104A1000B0CF25FF0BC02DEA31E247E050E0BE01E8
:104A2000635D7F4F83EC91E20E94D063A101465009
:104A30005109401B510B21F0B2016355704E02C069
:104A400060E070E0D7011696ED91FC911797C701D1
:104A5000029619958ECF009771F0FC0120812223D8
:104A600051F08191882321F080538A30D0F303C024
:104A700081E090E0089580E090E00895009789F04B
:104A8000E62FE295EF70F0E0EC55F84F2081FC0145
:104A900020836F70E62FF0E0EC55F84F2081FC0189
:104AA000218382E090E00895FC01AF014F5F5F4FEA
:104AB0002081222311F0FA01F8CF9F01281B390B26
:104AC000C90108958F929F92AF92BF92CF92DF92C9
:104AD000EF92FF920F931F93CF93DF93FC016A0134
:104AE0007B0141155A4C6A497B4398F42AE030E037
:104AF00040E050E0C1E0D0E0C216D306E406F5067F
:104B000050F0AAE0B0E00E94A96D9B01AC01219693
:104B1000F3CFCAE0D0E03097C9F08F010C0F1D1F12
:104B20008AE0882E912CA12CB12CC701B601A501D9
:104B300094010E94786D605DF80162938F016901B4
:104B40007A01C114D104E104F10479F7CE01DF91B7
:104B5000CF911F910F91FF90EF90DF90CF90BF907A
:104B6000AF909F908F900895AB0160E070E00C943F
:104B700062252091083C3091093C41E050E00C94C2
:104B8000BA71CF93DF93EC010E945425BC01CE0192
:104B9000DF91CF910C94B925EF92FF920F931F9361
:104BA000CF93DF93CDB7DEB767970FB6F894DEBF2C
:104BB0000FBECDBF698B5B8B4A8B3D8B2C8B1F8BC4
:104BC0000E8BFC86EB869E012F5E3F4F3E872D8726
:104BD000AC01BE016F5F7F4FCE0109960E94A91AFA
:104BE0008B819C818530924031F060E370E084EBF2
:104BF00097E00E94BB188D819E8167960FB6F8944E
:104C0000DEBF0FBECDBFDF91CF911F910F91FF90FF
:104C1000EF900895CF93DF93EB01FC01638D748DCA
:104C2000CE010E94B425C80FD91F1882DF91CF9101
:104C30000895EF92FF920F931F9374E0E72E72E0B6
:104C4000F72EFC01838D948D0E94CC251F910F912E
:104C5000FF90EF900895EF92FF920F931F9373E0F0
:104C6000E72E72E0F72EFC01838D948D0E94CC25F7
:104C70001F910F91FF90EF900895CF93DF93C0E0C5
:104C8000D0E080E090E00E94893F009739F0FC017D
:104C900022813381232BB9F32196F5CFCE01DF9109
:104CA000CF9108950C94893FCF93DF93EC0180E07E
:104CB00090E00E94893F009739F0FC01238D348DEC
:104CC0002C173D07B1F702C080E090E0DF91CF9153
:104CD0000895CF92DF92EF92FF92FC019C01260F84
:104CE000371F6FEE7EE180E090E0E217F307D9F026
:104CF0006B017C0145E0CC0CDD1CEE1CFF1C4A95D1
:104D0000D1F7DC01CB015BE1B695A7959795879527
:104D10005A95D1F78C299D29AE29BF294191BC0113
:104D2000CD016427E2CFFF90EF90DF90CF90089500
:104D30007F928F929F92AF92BF92CF92DF92EF922B
:104D4000FF920F931F93CF93DF9300D01F92CDB7A5
:104D5000DEB7009719F480E090E04DC06115710551
:104D6000D1F36C0119828B01CE0101967C01B12C2B
:104D7000A12C4C01F80171908F01772089F1672DEA
:104D800070E086ED97E00E94CD700097B9F0F701D2
:104D90002081FAE02F9F800D911D11249C01265D3A
:104DA00037402F3F310509F0B0F6F7012083A110FD
:104DB00014C0B394F4E0FB1580F4CDCF3EE273123F
:104DC000CACFAA2041F284E0B81629F2F701118275
:104DD000C70101967C01A12CCDCFAA24A394CACFF0
:104DE000F3E0FB1508F0B7CF44E050E0B401C60192
:104DF0000E94BD70C6010F900F900F900F90DF9131
:104E0000CF911F910F91FF90EF90DF90CF90BF90C7
:104E1000AF909F908F907F9008951F93CF93DF93D3
:104E20009C010097A9F16115710591F1403180F164
:104E3000DB01AB014C5F5F4FFC01CAE014E6DEE230
:104E40008D91843678F0612F0E946C6D60E3680F5D
:104E50006083892F6C2F0E946C6D805D8183892F08
:104E6000329609C08A3038F06C2F0E946C6D805DDC
:104E70008083892F3196805D8083CF010296D18314
:104E80004A175B0711F0FC01DBCF1182C90102C098
:104E900080E090E0DF91CF911F9108950196FC0191
:104EA00020810196222321F02613F9CF1082FC01E4
:104EB0008081882311F0CF01089580E090E008956B
:104EC000CF93DF93CDB7DEB7AE970FB6F894DEBFC2
:104ED0000FBECDBF009731F464E970E081EE97E03A
:104EE0000E94BB184EE2BC01CE0101960E948028B0
:104EF000CE0101960E94C125AE960FB6F894DEBF92
:104F00000FBECDBFDF91CF9108953F924F925F9238
:104F10006F927F928F929F92AF92BF92CF92DF92C9
:104F2000EF92FF920F931F93CF93DF93EC017B01DE
:104F3000009719F480E090E0D1C0672BD9F340E1ED
:104F400050E060E070E00E94C670D7018C9167016C
:104F50008A3341F010E000E0412C512C3201A12CA9
:104F6000B12C36C0BFEFCB1ADB0AF70181818A333F
:104F700089F3E0CF832C032C000C9908B4018EE454
:104F800098E00E94CD70009761F5B4018DE398E040
:104F90000E94CD70009741F12DE338E044E0440CCD
:104FA000551C661C771C4A95D1F7AC01421B530B6C
:104FB000052E000C660B770B442A552A662A772AA1
:104FC00041145104F1E06F06710408F0B3CF01E021
:104FD000BFEFCB1ADB0AF601319730803110CACF10
:104FE00040C02EE438E0DACF8AE3381224C0011141
:104FF00008C0AB2809F09ECF5E01A10EB11C76015E
:10500000E7CF812F90E09C012E5F3F4F213131058A
:1050100008F090CFFE01E80FF91F508281E0810F68
:10502000FE01E80FF11D1E5F4082760100E0412C79
:10503000512C3201CDCFAEE23A127CCF812F90E0DD
:105040009C012C5F3F4F2131310508F073CFB70130
:105050008C0F9D1F0E949826892B09F46BCF1C5F33
:1050600016C00023A1F0812F90E09C012E5F3F4FDE
:105070002131310508F05ECFFE01E80FF91F5082A3
:1050800081E0810FFE01E80FF11D1E5F4082A11437
:10509000B10401F1FE01E10FF11DCF018A199B0955
:1050A0006C01990FEE08FF089E01205F3F4F41E021
:1050B00050E060E070E0C416D506E606F7066CF036
:1050C0001291D9011E939D0110824F5F5F4F6F4F68
:1050D0007F4FF1CF103109F02DCFCE01DF91CF916D
:1050E0001F910F91FF90EF90DF90CF90BF90AF9006
:1050F0009F908F907F906F905F904F903F9008951A
:105100004F925F927F928F929F92AF92BF92CF9277
:10511000DF92EF92FF920F931F93CF93DF93CDB760
:10512000DEB7AE970FB6F894DEBF0FBECDBF0097C7
:1051300019F480E090E013C161157105D1F3DB0132
:1051400000E010E0EE24EA94FE2CC12CD12C2FEFCD
:105150003FEFE0E0F0E0AD90BD90AB2831F42F3FA1
:105160005FEF350771F0319614C02F3F5FEF3507C1
:1051700081F05FEFE516F50641F0CE16DF063CF450
:1051800004C09801E1E0F0E004C06F0179012FEF65
:105190003FEF0F5F1F4F08301105E9F62F3FAFEFCC
:1051A0003A0749F0BFEFEB16FB0609F4D5C0CE165F
:1051B000DF062CF4D1C0EFEFEE16FE0639F0F2E078
:1051C000CF16D1041CF4EE24EA94FE2C742E2B018D
:1051D0004C0120E030E0FE0131965F016AE3E21607
:1051E000F30631F4608397012C0D3D1D319694C078
:1051F0008F012115310559F10F5F1F4F6083263054
:10520000310529F5E114F10411F546E0C416D10485
:1052100099F44A2D401B425DB201645F7F4FC80183
:105220000E940D27892B09F484CFC8010E940771C1
:10523000F801E80FF91F78C055E0C516D10439F41C
:10524000D2011A968D919C911B97019611F3A90199
:10525000440F551FC201840F951FFC017081E72F79
:10526000E07F09F1E72FE295EF70F0E0E25BF74FA6
:10527000A081F801A083E72FEF70F0E0E25BF74F29
:105280007081D80111967C931197FC018181E82FE0
:10529000E295EF70F0E0E25BF74F808112968C931D
:1052A0000D5F1F4F28C07723A9F0E72FF0E0E25BE6
:1052B000F74F7081D8017C93FC018181E82FE29542
:1052C000EF70F0E0E25BF74F808111968C930E5FF8
:1052D0001F4F11C0DC0111969C91892F807F59F0DE
:1052E000E92FE295EF70F0E0E25BF74F8081F80183
:1052F00080830F5F1F4FF8013196440D551DDA0171
:1053000011968C918F7090E0825B974FDC018C91AD
:10531000D8018C932F5F3F4F283031050CF45FCFBD
:10532000BFEFEB16FB0649F0EC0CFD1C28E0E21683
:10533000F10419F48AE3808331961192EA19FB098A
:10534000472D50E04E175F0708F4F3CEB501C401B6
:105350000E94E170C40103C06F01790130CFAE96A5
:105360000FB6F894DEBF0FBECDBFDF91CF911F9176
:105370000F91FF90EF90DF90CF90BF90AF909F90F4
:105380008F907F905F904F900895FC01118610865A
:105390004115510549F088279927841B950B8423D3
:1053A00095234817590731F06FE370E08FE598E0D7
:1053B0000E94BB18718360835383428315821482D9
:1053C0001782168208950F931F93CF93DF93EC01FA
:1053D0000E940E678C01CE0108960E94421BC801F4
:1053E000DF91CF911F910F9108959F92AF92BF923D
:1053F000CF92DF92EF92FF920F931F93CF93DF93A1
:105400001F92CDB7DEB78C017B016A01992493947A
:105410005C0188E0A80EB11CA601B701C8010E947A
:10542000E466009741F49982BE016F5F7F4FC5012A
:105430000E94FF1AF1CF0F90DF91CF911F910F9132
:10544000FF90EF90DF90CF90BF90AF909F90089526
:1054500021E030E0FC0133832283808191810C9430
:10546000421B5F926F927F928F929F92AF92BF92F8
:10547000CF92DF92EF92FF920F931F93CF93DF9320
:10548000CDB7DEB76B970FB6F894DEBF0FBECDBFBA
:105490006C014B013A015C0188E0A80EB11CB88E8A
:1054A000AF8A1A8E198EFE0131967F0186E1119224
:1054B0008A95E9F788E29AE29C8B8B8BCE0147961E
:1054C0009E8B8D8BB901A80184E0769567955795E1
:1054D00047958A95D1F700E010E09801C7010E9436
:1054E0005C6C55245394A301B401C6010E94E46688
:1054F0008C01892B69F45B8EBE01655E7F4FC5010F
:105500000E94FF1A898D9A8D892B69F302EB1FEF98
:10551000C7010E94356CC8016B960FB6F894DEBFC8
:105520000FBECDBFDF91CF911F910F91FF90EF90F4
:10553000DF90CF90BF90AF909F908F907F906F90B3
:105540005F9008950F931F93CF93DF938C01CCE16D
:10555000D2E2FE01EC5AFF4F8081813041F440E4F9
:1055600050E0B801CE010E941071892B49F0CB5A4E
:10557000DF4F83E2C037D80761F780E090E001C0D9
:10558000CE01DF91CF911F910F9108958F929F923D
:10559000AF92BF92CF92DF92EF92FF920F931F9341
:1055A000CF93DF936C018B01FB0110821182128279
:1055B00013821482158216821782118610868FEF4D
:1055C0009FEF93878287645F7F4F43E050E0C6017F
:1055D0000E9405617C0197FD65C0C6010E94A22A58
:1055E000EC01892B31F58CE192E2FC01EC5AFF4F82
:1055F00020812223D9F0209789F0349780809180F0
:10560000A280B380FE01E05BFF4F40815181628147
:10561000738184169506A606B70608F4EC018B5A2A
:105620009F4FF3E280379F0701F701C0EC012097FD
:10563000C9F140E450E0B601CE010E941E7180E144
:10564000F801DE01A05CBF4F01900D928A95E1F751
:10565000FE01EC5AFF4F81E080830E94376AC05BF5
:10566000DF4FDC01CB0124E0880F991FAA1FBB1F6D
:105670002A95D1F788839983AA83BB8344E551E0B7
:1056800064E170E08CE192E20E94F87864E571E0F8
:105690008CE192E20E946926AB01BC0180E190E0BE
:1056A0000E941A79C701DF91CF911F910F91FF904E
:1056B000EF90DF90CF90BF90AF909F908F90089524
:1056C000CF92DF92EF92FF920F931F93CF93DF93CE
:1056D00044E551E064E170E08CE192E20E94E278FE
:1056E00080E190E00E94F2786B017C0164E571E05A
:1056F0008CE192E20E946926C616D706E806F906F2
:1057000079F08EEE92E09F938F930E941072109228
:1057100070221092C52210921A2310926F2349C052
:1057200082EE92E09F938F930E941072CCE5D2E2BA
:105730000F900F900DED12E08BEDE82E82E0F82E29
:105740008C89813051F54AE050E06DE278E0CE017D
:105750000E94B070892B31F481E02A853B852F3F70
:105760003F4F09F080E080FF17C0CE0180549109BF
:105770009F938F931F930F930E941072CE010E94EC
:105780006027FF92EF920E9410720F900F900F907F
:105790000F900F900F9001C01C8ACB5ADF4F83E20D
:1057A000C03BD80769F689ED92E09F938F930E94E2
:1057B00010720F900F90DF91CF911F910F91FF907A
:1057C000EF90DF90CF9008950F931F93CF93DF93C7
:1057D000EC018B01BC01C8010E948527892BB9F41B
:1057E000CE010E94A22AFC01892B49F090E1E05CE5
:1057F000FF4FD80101900D929A95E1F708C0B801CA
:10580000CE01DF91CF911F910F910C94C62A80E0B9
:1058100090E0DF91CF911F910F910895CF92DF9289
:10582000EF92FF920F931F93CF93DF93CDB7DEB725
:1058300060970FB6F894DEBF0FBECDBF0CE112E249
:10584000F801EC5AFF4F8081813011F50E94376AD0
:10585000DC01CB0124E0880F991FAA1FBB1F2A95EA
:10586000D1F7F801E05BFF4FC080D180E280F38088
:105870008C199D09AE09BF0981159844A742BD4AFC
:1058800038F0BE016F5F7F4FC8010E94C62A06C074
:105890000B5A1F4F83E20037180791F660960FB638
:1058A000F894DEBF0FBECDBFDF91CF911F910F9156
:1058B000FF90EF90DF90CF900895CF93DF93CDB717
:1058C000DEB728970FB6F894DEBF0FBECDBFBE017E
:1058D0006F5F7F4F28E0FB0111922A95E9F721E0E5
:1058E00030E03C832B8341E050E00E94531928961E
:1058F0000FB6F894DEBF0FBECDBFDF91CF910895F4
:105900006F927F928F929F92AF92BF92CF92DF92CF
:10591000EF92FF920F931F93CF93DF93CDB7DEB734
:1059200028970FB6F894DEBF0FBECDBF5C014B01C8
:10593000BE016F5F7F4F80E00E944610892B59F0B7
:105940008BE497E09F938F930E9410720F900F90BB
:1059500080E090E02BC0CE0101967C013E0199E0F1
:10596000690E711C00E010E086E4C82E87E0D82E96
:10597000F70181917F011F928F93DF92CF92C40133
:10598000801B910B9F938F93C501800F911F9F9355
:105990008F930E94D672080F191F0FB6F894DEBFBE
:1059A0000FBECDBF6E147F0419F7C80128960FB63D
:1059B000F894DEBF0FBECDBFDF91CF911F910F9145
:1059C000FF90EF90DF90CF90BF90AF909F908F901F
:1059D0007F906F9008950F931F93CF93DF93CDB770
:1059E000DEB7A9970FB6F894DEBF0FBECDBF8C010E
:1059F00061E170E0CE0149960E94802CCE0149966B
:105A00000E9407710D9730F46DE470E085E798E02F
:105A10000E94BB180115110511F0C80102C08EEDDE
:105A200096E09E012B5D3F4F3F932F939F938F9363
:105A30008BE995E09F938F931F9288E18F938E015E
:105A40000F5F1F4F1F930F930E94D672B8018BE513
:105A500097E00E940C230FB6F894DEBF0FBECDBFB7
:105A600080E090E0A9960FB6F894DEBF0FBECDBFE0
:105A7000DF91CF911F910F910895EF92FF920F93B5
:105A80001F93CF93DF93D82FC92F7B0189015F9399
:105A90004F938AEA98E09F938F9380E497E09F93D7
:105AA0008F93FF926F93CF93DF930E94D6722DB79F
:105AB0003EB7265F3F4F0FB6F8943EBF0FBE2DBFD7
:105AC0000115110561F0A701B8018D2F9C2FDF9101
:105AD000CF911F910F91FF90EF900C94E870DF91A0
