:100000000C94E0080C940B090C940B090C940B094C
:100010000C940B090C940B090C940B090C940B0910
:100020000C940B090C940B090C940B090C940B0900
:100030000C940B090C940B090C940B090C940B09F0
:100040000C940B090C94CA1B0C94F61B0C94221CE8
:100050000C940B090C940B090C940B090C940B09D0
:100060000C940B090C94F51C0C940B090C94491D71
:100070000C940B090C940B090C940B090C940B09B0
:100080000C940B090C940B090C940B090C940B09A0
:100090000C941F1D0C940B090C94771D0C940B09E8
:1000A0000C940B090C940B090C94C21A0C94EE1AC4
:1000B0000C941A1B0C940B090C940B090C94461B02
:1000C0000C94721B0C949E1B0C940B090C940B0942
:1000D0000C940B090C940B090C940B090C940B0950
:1000E0000C940B090C940B090C940B090C940B0940
:1000F0000C94C3140C940B090C94FC140C94301540
:100100000C940B090C940B090C940B090C940B091F
:100110000C940B090C940B090C940B090C944F16BE
:100120000C94A8140C940B090C940B090C940B0957
:100130000C940B09CD2ADC2ACD2AEB2AF72ADC2ADB
:10014000F72ACD2A2659305939594E59A15AB05A51
:100150000E5B0C94932A0C9426590C946E540C94B8
:10016000E4510C9406500C94B73B0C94E74F0C945C
:10017000A1120C941F2D0C9471100C940D090C9469
:10018000B43A0C94CD2A0C946B3B0C94E9510C942A
:10019000C3520C9463130C94B9120C94DF610C9449
:1001A000BE410C94A15A0C94EB2A0C94E3580C9485
:1001B00030590C9493270C9403370C944A500C94A8
:1001C000BE360C94C4290C940B500C946D6A0C949C
:1001D000EC380C944C1E0C94B23A0C94A1280C945C
:1001E00045090C940C390C9402620C946A3A0C94F4
:1001F00026240C942C390C94DC2A0C940E5B0C9461
:1002000050090C94C4100C94F2120C94F72A0C941C
:10021000174B0C943D1E0C9466680C94F0510C9492
:1002200039590C9449090C94CC1D0C9435500C94FC
:100230004E590C941B2A0C94440A0C94B91D0C942E
:10024000B05A0C94AC2B0C94826E6364696E6F7020
:10025000737578585B00464154414C204552524FCB
:10026000523A204241444953525F76656374206399
:10027000616C6C65642C20756E70726F636573734E
:10028000656420496E746572727570742E0A5354D9
:100290004F5020457865637574696F6E2E0A007340
:1002A0007563636573733A202573736574206F708B
:1002B00074696F6E0A006572726F723A20756E61B2
:1002C000626C6520746F20736574206F7074696F41
:1002D0006E0020202020202020726573657420632A
:1002E000616E206265206F6E6C7920757365642085
:1002F000696620746865206D6F64756C652069732C
:10030000207370656369666965642E007573616743
:10031000653A202573203C69665F69643E207374EA
:10032000617473205B6C327C697076365D205B7221
:10033000657365745D0A007D007C0025730075732C
:100340006167653A202573203C69665F69643E20D9
:100350005B2D5D7B0075736167653A202573203CDA
:1003600069665F69643E205B75707C646F776E5D63
:100370000A0075736167653A2025730A0020202002
:1003800020202020202020537461746973746963D5
:100390007320666F722025730A20202020202020E1
:1003A00020202020205258207061636B65747320D8
:1003B0002575202062797465732025750A20202018
:1003C0002020202020202020205458207061636BA2
:1003D00065747320257520284D756C74696361738D
:1003E000743A20257529202062797465732025755B
:1003F0000A202020202020202020202020545820A7
:100400007375636365656465642025752065727224
:100410006F72732025750A005265736574207374BA
:10042000617469737469637320666F72206D6F64A1
:10043000756C65202573210A0020202020202020B3
:100440002020202050726F746F636F6C206F7220B9
:1004500064657669636520646F65736E27742070C8
:10046000726F76696465207374617469737469630B
:10047000732E006572726F723A20756E61626C65E0
:1004800020746F2064656C65746520495076362051
:10049000616464726573732E0075736167653A20D9
:1004A0002573203C69665F69643E2064656C203C6E
:1004B000697076365F616464723E0A006572726FBD
:1004C000723A20756E61626C6520746F206164649D
:1004D000204950763620616464726573732E00750E
:1004E000736167653A202573203C69665F69643EE5
:1004F00020616464205B616E79636173747C6D75E7
:100500006C7469636173747C756E69636173745D27
:10051000203C697076365F616464723E5B2F707256
:10052000656669785F6C656E5D0A006572726F72F0
:100530003A20756E61626C6520746F20736574205B
:100540006C696E6B2025730A0020746F2025730A76
:1005500000737563636573733A20736574207374F5
:10056000617465206F6620696E746572666163658B
:1005700020006572726F723A20756E61626C652040
:10058000746F2073657420737461746520746F20B8
:1005900025730A0075736167653A206966636F6E3B
:1005A000666967203C69665F69643E2073657420F4
:1005B0007374617465205B6F66667C736C656570CF
:1005C0007C69646C657C72787C74787C7265736518
:1005D000747C7374616E6462795D00256C750A00C9
:1005E00030782530346C780A0020746F2000206F3A
:1005F0006E20696E74657266616365200073756351
:10060000636573733A207365742000006572726FBE
:10061000723A20756E61626C6520746F2073657428
:1006200020006572726F723A20756E61626C65208F
:10063000746F2070617273652076616C75652E0A27
:100640004D75737420626520612031362D626974A6
:1006500020756E7369676E656420696E7465676581
:10066000722028646563206F7220686578290A000B
:100670006572726F723A20756E61626C6520746F7C
:100680002070617273652076616C75652E0A4D75F8
:10069000737420626520612031362D626974207583
:1006A0006E7369676E656420696E74656765722034
:1006B00028646563206F7220686578290A00657276
:1006C000726F723A20756E61626C6520746F207073
:1006D000617273652076616C75652E0A4D75737451
:1006E00020626520612031362D62697420756E7339
:1006F00069676E656420696E746567657220286439
:100700006563206F7220686578290A0020746F2065
:1007100025690A00206F6E20696E746572666163D8
:10072000652000737563636573733A207365742085
:1007300000006572726F723A20756E61626C65209E
:10074000746F20736574200020746F2025690A007F
:10075000206F6E20696E7465726661636520007338
:100760007563636573733A20736574200000657266
:10077000726F723A20756E61626C6520746F2073BF
:100780006574200000253032780020746F200A0044
:10079000737563636573733A2073657420656E6364
:1007A00072797074696F6E206B6579206F6E206945
:1007B0006E7465726661636520006572726F723A6D
:1007C00020756E61626C6520746F2073657420659E
:1007D0006E6372797074696F6E206B6579006572F3
:1007E000726F723A20756E61626C6520746F207052
:1007F00061727365206B6579006572726F723A2061
:10080000696E76616C6964206B65792073697A65BD
:100810002E0A000A4E6F746963653A20736574741A
:10082000696E672035313220626974206B65792EDC
:10083000000A4E6F746963653A2073657474696E5B
:10084000672032353620626974206B65792E000A84
:100850004E6F746963653A2073657474696E6720BE
:1008600031393220626974206B65792E000A4E6F2F
:10087000746963653A2073657474696E67203132F8
:100880003820626974206B65792E000A4E6F746996
:1008900063653A2073657474696E6720363420622C
:1008A0006974206B65792E000A4E6F746963653A2E
:1008B0002073657474696E67203536206269742010
:1008C0006B65792E00256C750A0030782530346C04
:1008D000780A0020746F2000206F6E20696E7465A6
:1008E00072666163652000737563636573733A2094
:1008F0007365742000006572726F723A20756E61C4
:10090000626C6520746F2073657420006572726F6D
:10091000723A20756E61626C6520746F207061722E
:1009200073652076616C75652E0A4D75737420624F
:100930006520612033322D62697420756E7369679A
:100940006E656420696E74656765722028646563EE
:10095000206F7220686578290A006572726F723A9A
:1009600020756E61626C6520746F207061727365B2
:100970002076616C75652E0A4D7573742062652052
:10098000612033322D62697420756E7369676E65FC
:100990006420696E74656765722028646563206FE2
:1009A0007220686578290A005258322064617461A7
:1009B00072617465006461746172617465005048AD
:1009C000592062757379006C696E6B20636865638A
:1009D0006B006F74616100636865636B73756D00B4
:1009E00068696768207261746500656E637279700A
:1009F00074696F6E206B657900656E6372797074CF
:100A0000696F6E00434341207468726573686F6C50
:100A100064205B696E2064426D5D0043534D41204C
:100A200072657472696573006D61782E20726574E9
:100A300072616E736D697373696F6E7300545820C1
:100A4000706F776572205B696E2064426D5D006E29
:100A50006574776F726B206964656E746966696529
:100A600072004D545500686F70206C696D69740098
:100A700070616765006672657175656E6379205B8C
:100A8000696E20487A5D006368616E6E656C007304
:100A90006F757263652061646472657373206C6541
:100AA0006E67746800417070455549004E776B530E
:100AB0004B657900417070534B6579004170704B04
:100AC0006579006C6F6E6720616464726573730092
:100AD0002873686F7274292061646472657373008F
:100AE00020746F2025730A00206F6E20696E746574
:100AF00072666163652000737563636573733A2082
:100B00007365742000006572726F723A20756E61B1
:100B1000626C6520746F2073657420006572726F5B
:100B2000723A20756E61626C6520746F207061721C
:100B3000736520616464726573732E0A4D757374F6
:100B4000206265206F6620666F726D6174205B3075
:100B50002D39612D66412D465D7B327D283A5B3013
:100B60002D39612D66412D465D7B327D292A0A286B
:100B70006865782070616972732064656C696D695D
:100B800074656420627920636F6C6F6E7329002036
:100B900020202020205365747320616E20686172CC
:100BA0006477617265207370656369666963207339
:100BB000706563696669632076616C75650A2020DB
:100BC000202020203C6B65793E206D617920626594
:100BD000206F6E65206F662074686520666F6C6C90
:100BE0006F77696E670A202020202020202A20228B
:100BF0006164647222202D207365747320287368E9
:100C00006F72742920616464726573730A202020F6
:100C1000202020202A2022616464725F6C6F6E673E
:100C200022202D2073657473206C6F6E67206164C1
:100C300064726573730A202020202020202A20223D
:100C4000616464725F73686F727422202D20616C1E
:100C500069617320666F72202261646472220A20C7
:100C60002020202020202A20226363615F74687284
:100C70006573686F6C6422202D2073657420454471
:100C8000207468726573686F6C6420647572696E35
:100C9000672043434120696E2064426D0A20202072
:100CA000202020202A20226672657122202D2073A8
:100CB0006574732074686520226368616E6E656C6C
:100CC000222063656E746572206672657175656E4B
:100CD00063790A202020202020202A2022636861B6
:100CE0006E6E656C22202D207365747320746865A8
:100CF000206672657175656E6379206368616E6EDA
:100D0000656C0A202020202020202A202263686190
:100D10006E22202D20616C69617320666F72202223
:100D20006368616E6E656C220A20202020202020DE
:100D30002A2022636865636B73756D22202D2073F2
:100D4000657420636865636B73756D6D696E67208C
:100D50006F6E2D6F66660A202020202020202A201A
:100D60002263736D615F7265747269657322202DF1
:100D700020736574206D61782E206E756D626572CA
:100D8000206F66206368616E6E656C2061636365C9
:100D9000737320617474656D7074730A2020202051
:100DA0002020202A2022656E637279707422202D03
:100DB000207365742074686520656E637279707441
:100DC000696F6E206F6E2D6F66660A2020202020CE
:100DD00020202A2022686F705F6C696D6974222060
:100DE0002D2073657420686F70206C696D69740ABA
:100DF000202020202020202A2022686C22202D2044
:100E0000616C69617320666F722022686F705F6C1D
:100E1000696D6974220A202020202020202A2022A7
:100E20006B657922202D20736574207468652065B8
:100E30006E6372797074696F6E206B657920696E6C
:100E40002068657861646563696D616C20666F72A6
:100E50006D61740A202020202020202A20226D7419
:100E60007522202D2049507636206D6178696D7588
:100E70006D207472616E736974696F6E20756E692E
:100E8000740A202020202020202A20226E6964223B
:100E9000202D207365747320746865206E657477E7
:100EA0006F726B206964656E74696669657220286B
:100EB0006F72207468652050414E204944290A20F1
:100EC0002020202020202A20227061676522202DEA
:100ED0002073657420746865206368616E6E656C4C
:100EE0002070616765202849454545203830322EFD
:100EF00031352E34290A202020202020202A2022AB
:100F000070616E22202D20616C69617320666F72A2
:100F100020226E6964220A202020202020202A20FE
:100F20002270616E5F696422202D20616C6961739B
:100F300020666F7220226E6964220A202020202001
:100F400020202A20227068795F6275737922202D13
:100F5000207365742062757379206D6F6465206FEE
:100F60006E2D6F66660A202020202020202A202255
:100F7000706F77657222202D20545820706F77652E
:100F80007220696E2064426D0A20202020202020DB
:100F90002A202272657472616E7322202D206D6189
:100FA000782E206E756D626572206F662072657492
:100FB00072616E736D697373696F6E730A2020209E
:100FC000202020202A20227372635F6C656E22200D
:100FD0002D20736574732074686520736F75726358
:100FE000652061646472657373206C656E677468F4
:100FF00020696E20627974650A202020202020203C
:101000002A2022737461746522202D207365742058
:1010100074686520646576696365207374617465BE
:101020000A0075736167653A202573203C69665F25
:1010300069643E20736574203C6B65793E203C7684
:10104000616C75653E0A000A2020202020202020A7
:101050002020002573002573000000536F75726314
:10106000652061646472657373206C656E67746873
:101070003A202575004C322D5044553A25752020D4
:10108000002043534D4120526574726965733A20C4
:1010900025752000206D61782E2052657472616E76
:1010A000732E3A20257520002053746174653A2010
:1010B000257320002054582D506F7765723A2025F3
:1010C0006964426D2000257320004C6F6E672048D4
:1010D00057616464723A2000204C696E6B3A202597
:1010E0007320002068696768206461746120726100
:1010F00074653A20256420000A202020202020202A
:1011000020202000205048593A20257320002052EA
:101110005353493A2025642000204E49443A203058
:10112000782578200020506167653A2025752000D9
:10113000204672657175656E63793A20256C754835
:101140007A2000204368616E6E656C3A2025752018
:1011500000204857616464723A2025732000200003
:1011600049666163652020004D6F64756C652025BC
:101170007320646F65736E277420657869737420BB
:101180006F7220646F6573206E6F742070726F765B
:1011900069646520737461746973746963732E0A7A
:1011A000006572726F723A20696E76616C696420B4
:1011B000696E7465726661636520676976656E0045
:1011C000832D8093AE4E822D8093AF4E11241FBE8F
:1011D000CFEFD1E8DEBFCDBF00E00CBF19E1A0E04A
:1011E000B2E0E2E2F2EF00E00BBF02C007900D9226
:1011F000A639B107D9F72EE4A6E9B9E101C01D92DD
:10120000AE3AB207E1F70E9494160C940F790E944F
:1012100012090C940F790C941A160E94A41980E0FC
:1012200090E00895CF93DF93CDB7DEB7C058D109D2
:101230000FB6F894DEBF0FBECDBF8DE692E09F9350
:101240008F930E9438720E946C158091791E909144
:101250007A1E90939719809396199F938F938CE79A
:1012600092E09F938F930E9438720F900F900F908F
:101270000F900F900F9040E850E0BE016F5F7F4FDE
:101280008FE293E00E947D42F6CF21E0FC012287AD
:10129000089522E0FC01228785A196A10C94632485
:1012A0000F931F93CF93DF93EC018B010F960E9456
:1012B000496C6D857E85EB85FC85A801CE0119956D
:1012C0008DA19EA1DF91CF911F910F910C9463246A
:1012D000CF92DF92EF92FF920F931F93CF93DF9302
:1012E000EC01670178011A867C876B875E874D87E2
:1012F0008091791E90917A1E9EA38DA319821882E7
:101300008091981990919919AC014F5F5F4F50935C
:101310009919409398198FA380E599E09D838C8358
:10132000D987C8873F832E83BE016E5F7F4F82EBD4
:101330009DE40E945D0C89E499E09AA389A3DCA353
:10134000CBA3B701A60184E076956795579547959D
:101350008A95D1F700E010E09801CE010F960E9427
:10136000706CDF91CF911F910F91FF90EF90DF9004
:10137000CF900895CF93DF93EC010F960E94496CB4
:10138000BE016E5F7F4F82EB9DE4DF91CF910C94A5
:101390009C0CCF93DF93EC012A85211103C00E949E
:1013A0004D24FACF81E090E0213011F480E090E00C
:1013B000919581959109DF91CF910895AF92BF9258
:1013C000CF92DF92EF92FF920F931F93CF93DF9311
:1013D000CDB7DEB7A9970FB6F894DEBF0FBECDBF6D
:1013E0006C015B01780189019A0140E050E065E4FD
:1013F00079E0CE0101960E946809BA82A98281E053
:1014000089A7BE01675D7F4F87E597E40E94B921F8
:10141000C6010E94560BC5010E944371AC01B50183
:10142000C6010E940E0B41E050E065E673E0C60184
:101430000E940E0B87E597E40E94FC21CE010196E5
:101440000E94C9096C01CE0101960E94BA09C60129
:10145000A9960FB6F894DEBF0FBECDBFDF91CF9136
:101460001F910F91FF90EF90DF90CF90BF90AF90C2
:1014700008950F931F9389019A014DE158E10E944D
:10148000DE091F910F9108950C94BE360F931F93A0
:10149000CF93C82F082F880F110BC8010E94DC7052
:1014A000892B21F4CA3011F0CD3051F46091AA4E4D
:1014B0007091AB4EC801CF911F910F910C94BA71EE
:1014C0001F92CF9387E693E09F938F930E94387289
:1014D0000F900F900F900F90CF911F910F91089543
:1014E000EF92FF920F931F93CF93DF938C017B01B9
:1014F000EC01CE01801B910B8E159F0534F4899170
:10150000882319F00E94460AF4CFDF91CF911F91F2
:101510000F91FF90EF900895CF92DF92EF92FF929C
:101520001F93CF93DF937C016B01EC01CE019E01F1
:101530002E193F092C153D05C4F419911123A9F06A
:1015400041E050E065E673E00E944C71892B49F45C
:101550006091AA4E7091AB4E8AE090E00E94BA7101
:10156000E5CF812F0E94460AE1CFDF91CF911F91F5
:10157000FF90EF90DF90CF900895EF92FF920F933E
:101580001F93CF93DF93EC018B01EC80FD80C701AB
:101590000E944371AC01B701C8010E944C71892BB4
:1015A00049F4EA81FB81B8018E819F81199581E020
:1015B00090E002C080E090E0DF91CF911F910F9109
:1015C000FF90EF9008958F929F92AF92BF92CF922B
:1015D000DF92EF92FF920F931F93CF93DF93EC0173
:1015E0006B0149015A01B801A701DB86CA860E9436
:1015F000A0368E0124E43AE0B501A401C6010E94A0
:101600006D1CDF91CF911F910F91FF90EF90DF90B4
:10161000CF90BF90AF909F908F900895EF92FF92E0
:101620000F931F93CF93DF937C018B01EA01BA01E3
:101630004135510510F060E570E0C8010E948C0A48
:10164000AE01B801F70182859385DF91CF911F919B
:101650000F91FF90EF900C94C71CEF92FF920F93A5
:101660001F93CF93DF937C01EB01CB010E94437169
:101670008C01AC01BE01F701828593850E94C71CD5
:1016800041E050E065E673E0F701828593850E94B2
:10169000C71CB801CE010E948C0A80E090E0DF9167
:1016A000CF911F910F91FF90EF900895EF92FF92CD
:1016B0000F931F93CF93DF93CDB7DEB760970FB62D
:1016C000F894DEBF0FBECDBF7C0100E117E220E041
:1016D00030E040E150E0BE016F5F7F4FC7010E94E4
:1016E0000C371816190634F4BC01CE0101960E947D
:1016F000700AEBCF60960FB6F894DEBF0FBECDBF79
:10170000DF91CF911F910F91FF90EF9008952F924D
:101710003F924F925F927F928F929F92AF92BF9231
:10172000CF92DF92EF92FF920F931F93CF93DF93AD
:101730004C016B015A01722E1701280160E070E024
:10174000C6010E940271E601A114B10451F1920197
:10175000810141E050E0BE01C4010E940C3781309C
:101760009105C9F461E070E0CE010E94700A8881A1
:101770008D3019F471100AC0E7CF8A3039F418821D
:10178000CE018C199D0997FF10C00DC0219621E054
:10179000A21AB108D9CF823B9F4FB1F682EB9FEFDF
:1017A00002C08FEF9FEFF6011082DF91CF911F9162
:1017B0000F91FF90EF90DF90CF90BF90AF909F90F0
:1017C0008F907F905F904F903F902F9008954F9211
:1017D0005F926F927F928F929F92AF92BF92CF92C1
:1017E000DF92EF92FF920F931F93CF93DF93EC0161
:1017F0004B016A0159010E94560BA8019701B401DF
:10180000CE010E942D0B009771F420E0A501B601D6
:10181000CE010E94870B009731F420E0A501B601AC
:10182000CE010E94870BDF91CF911F910F91FF9006
:10183000EF90DF90CF90BF90AF909F908F907F9070
:101840006F905F904F900895EF92FF920F931F93C8
:10185000CF93DF93CDB7DEB7C054D1090FB6F8945C
:10186000DEBF0FBECDBF79018A0120E430E0AE01BA
:101870004F5F5F4F0E94E70B1816190684F46DE165
:1018800078E1CE0101960E94147121E030E0892BAD
:1018900011F420E030E088279927821B930BC05C6D
:1018A000DF4F0FB6F894DEBF0FBECDBFDF91CF91F3
:1018B0001F910F91FF90EF9008950F931F93CF9377
:1018C000DF938C01EB01209719F46AE272E006C005
:1018D0008C819D81009731F46BE272E08EE893E099
:1018E0000E94011E0E944371892B19F46CE272E080
:1018F000F5CF8A819B81892B19F46DE272E0EECFDE
:10190000D8011C96ED91FC911D97309759F080817C
:101910009181998388831C96ED91FC911D97D183C9
:10192000C08302C0D983C883F801D587C487DF91FB
:10193000CF911F910F910895CF93DF93EC01AC8568
:10194000BD85109769F18D919C9111976817790762
:1019500061F46A177B0719F41D861C8621C0FB0100
:10196000808191818D939C931BC0FD010190F0813A
:10197000E02D808191816817790721F0AE17BF07AC
:10198000A9F70EC0309761F0DB018D919C91918396
:1019900080838C859D856817790711F4FD87EC8716
:1019A000DF91CF9108954F925F926F927F92AF92A5
:1019B000BF92CF92DF92EF92FF920F931F93CF933C
:1019C000DF936C012A013B01E12CF12CC0E0D0E057
:1019D000CE018656964E5C019301820141E050E0B3
:1019E000BC01C6010E940C3797FD32C0F501808111
:1019F0008A3061F3F0E5EF16F10444F461E070E041
:101A0000C5010E94700A8FEFE81AF80A2196FE01BC
:101A1000E656F64E1082F60104851585011511056E
:101A200099F0F801008111816AE979E1C8010E9409
:101A3000BD0A892B39F4F6018485958508171907A5
:101A400081F702C0012B21F4CF37D10509F6BCCFB5
:101A5000DF91CF911F910F91FF90EF90DF90CF908A
:101A6000BF90AF907F906F905F904F900895CF920E
:101A7000DF92EF920F931F93CF93DF93811104C0F6
:101A80006A3929F483EC01C088EB9FEF1BC0890100
:101A90006A01C62F80E090E00E947C19009791F4C3
:101AA0004C2F50E0E12C960168E570E080E090E07A
:101AB0000E94156DD82FC92F80E090E00E949819E0
:101AC0008D2F9C2FDF91CF911F910F91EF90DF9081
:101AD000CF900895AB0128E030E068E90C94370D11
:101AE000CF93DF93EC018BE094E09983888388E0C7
:101AF00088A31E8E19A210924E0182E08E834F831E
:101B0000BE01645F7F4FCE010E94AD258A898F7729
:101B10008A878B898B87DF91CF910895CF93DF934D
:101B2000EC010E94B93C8E8D811104C063E0CE01AE
:101B30000E94A50FBE01645F7F4FCE010E94840EFC
:101B4000BE01665F7F4FCE010E94730E6AE1CE0137
:101B50000E94980E60E070E0CE010E94C70E41E046
:101B600060E870E0CE010E943B0F41E060E170E070
:101B7000CE010E943B0F21E030E04EE953E067E1E7
:101B8000CE010E946A3D80E880934C01809156010D
:101B90008E638093560166EACE010E94D90E88E4D6
:101BA00080934E0181E08093BE0080914F0186E1D9
:101BB00088A366E1CE01DF91CF910C94A50FCF935E
:101BC000DF93EC0189A18F5F89A369E1CE010E94B7
:101BD000A50F893109F088A382E08F8FDF91CF9123
:101BE00008950F931F93CF93DF93FC01EA018901BE
:101BF000978D940F978F81E0820F90E080589E4FD1
:101C00000E94F970CE01800F911FDF91CF911F913B
:101C10000F910895CF93DF93EC018FEF8AA3BE015C
:101C2000615E7F4F41E050E080E891E00E94F970F2
:101C300082E080934201EA81FB81309741F08C8DF4
:101C400080FF05C063E0CE01DF91CF911994DF9151
:101C5000CF910895FF920F931F93CF93DF93EC01E1
:101C600068E00E94A50FF82E00915501802F806832
:101C70008093550166E0CE010E94A50F8091480136
:101C80008068809348011091410117FFFCCF0093B9
:101C9000550168E0CE010E94A50F6F2DCE010E9474
:101CA000A50F16FB882780F9DF91CF911F910F9127
:101CB000FF9008951F93CF93DF93EC01162F40936D
:101CC0004201663151F0CE010E94F50F1813FBCF8F
:101CD0001E8FDF91CF911F910895CE010E94F50FC5
:101CE0008F31D9F3F5CFCF93DF93EC0142E050E091
:101CF0000A960E94F9708B85809360018A85809393
:101D00006101DF91CF910895CF93DF93EC0148E01B
:101D100050E00C960E94F9706496E4E6F1E08A9136
:101D20008193EC3681E0F807D1F7DF91CF910895E8
:101D300025EF260F203120F4FC01658B0C94361022
:101D4000089580E0089583E00895643048F4809118
:101D50004C018C7F682B60934C0180E090E00895EB
:101D600088EB9FEF089580914C01837008956093F4
:101D70006201709363010895E0914501EF70F0E016
:101D8000EE0FFF1FEC54FC4F8081918108956F5E30
:101D90007F4F6531710514F064E170E077FF02C098
:101DA00060E070E0FB01E156FC4F808180934501CB
:101DB0000895663A64F0633D64F4862F660F990BCC
:101DC000835A9F4F63E070E00E94A06D03C060E003
:101DD00001C06FE080915501807F682B60935501B1
:101DE000089580916C0182958F70089580916C01A7
:101DF0008F70683018F46295607F01C060E7682BCF
:101E000060936C01089580916C018E7086950895A1
:101E1000663014F065E002C067FD67E080916C01F8
:101E2000660F770B817F682B60936C0108956115B5
:101E3000710561F0FB01808180936D0180916E01DD
:101E400091819770887F892B80936E01089580918E
:101E500049018F70880F8A55089567FD61956195D6
:101E6000665A65956F70606C609349010895809122
:101E700047018A550895CF93DF93FC01248D358D5A
:101E8000442319F0262B372B05C0FB01E095F09574
:101E90002E233F23FC01358F248F6032710521F101
:101EA00038F464307105D9F16031710541F04AC0F0
:101EB0006038710561F161157140D9F143C0442367
:101EC00071F0EC01BC01645F7F4F0E94170F64E06A
:101ED000CE010E94080F83E580936F0133C06FEF3E
:101EE000DF91CF910C94080F80916E01442311F083
:101EF000806101C08F7E80936E01809157014423E1
:101F000011F0826001C08D7F809357011BC08091CA
:101F10006E01442311F08F7E13C0806111C0809147
:101F20004E01442311F0846001C08B7F80934E01E9
:101F300009C080916E01442311F0806201C08F7D41
:101F400080936E01DF91CF9108950F931F93CF93EC
:101F5000DF938C01D62FC8010E94F50FC82F8FEE9A
:101F60008C0F8230C0F38FEF8C0F8230A0F3CF3113
:101F700091F3D33019F443E068E02AC0CD1779F12A
:101F8000C63119F4D93141F504C0C93139F4D6311B
:101F900019F549E069E0C8010E945A0EDF3089F462
:101FA00043E068E0C8010E945A0E80914F01F80199
:101FB000138E809139018260809339018FE0868F82
:101FC0000EC0CF3019F4C8010E94FD0F4D2F6D2FA8
:101FD000C8010E945A0E03C0DF30C1F7E1CF8C2F39
:101FE000DF91CF911F910F910895FC01868D8F3065
:101FF00019F0809141018F710895CF93DF93EC0127
:102000000E94F50F8F30A1F4809139018D7F80936C
:10201000390120E030E0A90163E170E080E090E068
:102020000E947868809141018F718E8F8830D1F73E
:10203000DF91CF910895CF93DF93EC018091390127
:1020400081608093390120E030E0A90163E070E015
:1020500080E090E00E94786880914101982F9F7104
:102060009E8F8771C9F7DF91CF910895CF93DF934A
:10207000EC0168E00E94A50FE8E4F1E090812D8971
:102080002F71907E922B9083682FCE01DF91CF919C
:102090000C94A50FDC011296ED91FC9113973097EB
:1020A00011F060E019940895DC011296ED91FC9115
:1020B00013973097A9F05C962C9121FF11C06032E4
:1020C00049F018F4662331F00895603639F0603A2B
:1020D00019F0089564E003C066E001C067E0199458
:1020E0000895FF920F931F93CF93DF93EC010E940B
:1020F000F50F182F8F3009F441C0FB8C1B8E009117
:102100004201F2FE05C0EA81FB8161E0CE01199532
:102110008F2D887499F1163111F0113169F48C8D7D
:1021200083FF2CC0EA81FB8162E0CE01DF91CF9179
:102130001F910F91FF901994007E193179F489A1B4
:10214000811106C06EE173E084ED93E00E94011EF0
:1021500019A268A1CE010E94A50F07C0123171F427
:1021600089A1823058F0815089A3602FCE01DF9180
:10217000CF911F910F91FF900C945410DF91CF914C
:102180001F910F91FF900895AF92BF92CF92DF926F
:10219000EF92FF920F931F93CF93DF938C01C62F83
:1021A0006A0159010E94F50FD82F0115110509F494
:1021B0008EC18F3009F04EC0CA3109F4C7C0C801C2
:1021C0000E94FD0FC83109F40AC110F5C03109F4AD
:1021D000A4C078F4C23009F449C020F4CC2309F437
:1021E00077C08AC1C33009F451C0C63009F460C059
:1021F00083C1C43109F408C120F4C33109F4FFC01C
:102200007BC1C53109F4DEC0C63109F4E3C074C135
:10221000C23209F41BC178F4CD3109F401C120F4B4
:10222000CC3109F4F6C068C1CE3109F401C1CF3117
:1022300009F403C161C1C93209F463C020F4C33297
:1022400009F40EC159C1CA3209F420C1C43509F4D8
:102250002CC152C1C83109F4C2C008F04BC0C03112
:1022600009F45BC008F0A9C0C23061F482E0A8168E
:10227000B10419F065EF71E00FC0B601C8010E940A
:10228000730E28C1C33010F1C33079F4E8E0AE1604
:10229000B10431F06AEF71E084ED93E00E94011E19
:1022A000B601C8010E94840E15C1C63009F014C1E0
:1022B000F2E0AF16B10419F06FEF71E0EDCFF60167
:1022C00060817181C8010E94B70E04C1C11104C1AF
:1022D000F2E0AF16B10419F064E072E0DDCFF60170
:1022E000608185EF860F803108F016C1C8010E9419
:1022F000980EF0C0CF3109F4A0C000F1C93209F046
:10230000A1C0F2E0AF16B10419F063E172E0C4CFEE
:10231000F6018081811100C10DC0F3E0AF16B10458
:1023200018F069E272E0B8CFF60160817181C801EE
:102330000E94C70E32E0E32EF12CF2C0CC3109F43A
:1023400068C008F06BC0CA3109F0C6C0F2E0AF1631
:10235000B10418F06FE272E09FCFF6018081843003
:10236000A1F038F4813061F0823009F0B3C066E149
:1023700008C08530D9F0863009F0ACC068E001C0F3
:102380006FE0C8010E94A50FCFC0F801848D86FFC1
:10239000CBC081A1811102C081E081A369E1C801A4
:1023A0000E94A50FC8010E940A0EBEC0C8010E946B
:1023B0001B10C8010E948E0DB7C0C43129F1E0F096
:1023C000C53129F4F601408160E870E043C0C631B0
:1023D00009F082C0F601408160E071E03BC0F2E0AC
:1023E000AF16B10418F066E472E056CFF6016081D2
:1023F000C8010E94F60E67C0C33109F06DC0F60136
:10240000408160E470E026C0F601408160E270E047
:1024100021C0F601408164E070E01CC0CD3129F498
:10242000F601408168E070E015C0CE3109F054C07B
:10243000F601408161E070E00DC0F601408162E08C
:1024400070E008C0CA3200F5C23241F4F6014081A2
:1024500060E170E0C8010E943B0F35C0C332E1F576
:10246000F2E0AF16B10418F06CE772E015CFF80196
:10247000848D84FF51C0F6016081663008F04CC045
:10248000C8010E94080F1FC0CA3269F4F2E0AF16FB
:10249000B10418F06AE872E0FFCEF6016081C8016D
:1024A0000E942D0F10C0C435B9F4F2E0AF16B1048C
:1024B00018F062E972E0F0CEF6016081C8010E9476
:1024C000A50E97FD29C0EE24E394F12C29C084EDDC
:1024D0009FEF2CC0DF3081F09501A6016C2FC80161
:1024E000DF91CF911F910F91FF90EF90DF90CF90F0
:1024F000BF90AF900C946A3DCA3171F393ECE92E12
:10250000FF24FA946FE0C8010E94A50FF3ECEF16C8
:10251000FFEFFF0639F4E0CF84EEE82EFF24FA94B3
:10252000DF3081F3C70102C081E090E0DF91CF91FD
:102530001F910F91FF90EF90DF90CF90BF90AF90E1
:102540000895CF93DF93EC0190931B1A80931A1A8E
:102550000E941B1080915C01843931F4CE010E94ED
:102560008E0D80E090E002C083EC9FEFDF91CF9171
:102570000895EF92FF920F931F93CF93DF937C0107
:102580008B010E94DF0DC0E0D0E001151105C1F004
:10259000F80144815581CA0102968C0F9D1F803835
:1025A0009105B8F44115510539F0628173819E019E
:1025B000C7010E94F10DEC01F80100811181E5CF06
:1025C000F701848D86FD03C0C7010E940A0ECE016B
:1025D00002C08FEB9FEFDF91CF911F910F91FF9082
:1025E000EF9008958F929F92AF92BF92CF92DF9219
:1025F000EF92FF920F931F93CF93DF931F921F923F
:10260000CDB7DEB77C015B014A01690169E00E9438
:10261000A50F00917B010F7710E002501109A11462
:10262000B10419F4892891F12CC08016910640F468
:10263000F70160A1C7010E94A50F06ED1FEF26C09C
:10264000A80160E871E0C5010E94F97042E050E025
:1026500060E871E0CE0101960E94F970C114D104C6
:1026600081F041E050E060E871E0C60102960E940E
:10267000F9708091470190E08A559109F6019183A4
:102680008083F70160A1C7010E94A50FC8010F90C8
:102690000F90DF91CF911F910F91FF90EF90DF90FE
:1026A000CF90BF90AF909F908F9008950E94F50FAC
:1026B0008850823130F4E82FF0E0E750FC4F808101
:1026C000089582E00895AF92BF92CF92DF92EF9289
:1026D000FF920F931F93CF93DF93009709F427C1C5
:1026E0006D3109F459C069017A01C62F8C016E3130
:1026F00090F4643109F449C018F46331F1F164C015
:102700006A3161F16C3109F05FC0FC01848D82FB9C
:10271000882780F92DC0623209F449C058F46E311F
:1027200009F441C06F3109F04FC0FC01848D8695DA
:1027300081701EC0693219F06234F1F145C0223057
:10274000310518F46AE371E00DC0FA011182C80185
:102750000E94A10EF701808382E00DC0232B31F48B
:1027600060E471E084ED93E00E94011E0E94561324
:10277000F701808381E090E0E0C0FC01848D86FF5A
:1027800008C081E0F7018083F6CFFC01848D85FDD0
:10279000F8CFF7011082EECFFC01848D83FB8827F0
:1027A00080F9FA01E6CFFC01848D8170E1CFFC0154
:1027B000848D82958170DCCF232B19F469E771E059
:1027C000D1CFFC0182A1D4CF9601A7016C2FC80103
:1027D0000E94D43C5C01CD9609F0ABC0C8010E94B8
:1027E000F50FD82F8F3011F5C8010E94FD0FC332AD
:1027F00009F442C068F4C031F1F020F4C13009F4AA
:1028000056C090C0C53109F464C0C83161F18AC0B6
:10281000C23309F455C018F4CA32E9F183C0C33594
:1028200009F46AC0C43509F472C07CC0C33221F116
:1028300060F5C03189F482E0C816D10418F466E965
:1028400071E090CFC8010E94BC0EF7019183808394
:1028500092E0A92EB12C64C0C13130F1C531C9F16B
:10286000C83109F068C0CD2819F46DE971E07ACF5C
:10287000C8010E94F10E38C0CD2819F465EA71E054
:1028800071CFC8010E94030F2FC0C233C9F090F569
:10289000CA3209F050C0CD2819F46CEA71E062CF59
:1028A000C8010E94270F20C0C13009F044C0CD28C4
:1028B00019F462EB71E056CFC8010E942A0E14C0D1
:1028C000CD2819F468EB71E04DCFC8010E94370F95
:1028D0000BC0CD2819F46FEB71E044CF80916E01ED
:1028E0008295817091E08927F7018083AA24A394BF
:1028F000B12C16C0C33549F4CD2819F469EC71E048
:1029000031CFC8010E94A30E33CFC435A1F4CD2826
:1029100019F46EEC71E026CFC8010E94B30E28CFE7
:10292000DF3039F46FE0C8010E94A50F02C084EDCA
:1029300003C0C50102C083EC9FEFDF91CF911F91CF
:102940000F91FF90EF90DF90CF90BF90AF900895E0
:102950001F920F920FB60F9211240BB60F928F9306
:10296000EF93FF93E0911A1AF0911B1A82A18F5FE7
:1029700082A3FF91EF918F910F900BBE0F900FBE2E
:102980000F901F9018951F920F920FB60F9211245F
:102990000BB60F922F933F934F935F936F937F9359
:1029A0008F939F93AF93BF93EF93FF9380911C1AE4
:1029B000806880931C1A8091420180911A1A90912C
:1029C0001B1AFC01238D2860238F0E944A100E944D
:1029D0008717FF91EF91BF91AF919F918F917F9159
:1029E0006F915F914F913F912F910F900BBE0F9080
:1029F0000FBE0F901F9018951F920F920FB60F9257
:102A000011240BB60F922F933F934F935F936F93C5
:102A10007F938F939F93AF93BF93EF93FF93809197
:102A20001C1A806880931C1AE0911A1AF0911B1AE4
:102A3000838D8062838F0E948717FF91EF91BF91F2
:102A4000AF919F918F917F916F915F914F913F9146
:102A50002F910F900BBE0F900FBE0F901F901895E7
:102A60001F920F920FB60F9211240BB60F922F9355
:102A70003F934F935F936F937F938F939F93AF9306
:102A8000BF93EF93FF9380911C1A806880931C1A68
:102A9000809142018F71863151F080911A1A909184
:102AA0001B1AFC01238D2064238F0E944A100E9470
:102AB0008717FF91EF91BF91AF919F918F917F9178
:102AC0006F915F914F913F912F910F900BBE0F909F
:102AD0000FBE0F901F9018958091AF4E80FF18C0C9
:102AE000E091331EF091341E309729F0828D938D42
:102AF000803891054CF087E194E09F938F930E947A
:102B000038720F900F9004C088E294E00E947472B3
:102B10008091AF4E81FF18C0E091331EF091341EBA
:102B2000309729F0828D938D803891054CF084E6A2
:102B300094E09F938F930E9438720F900F9004C07F
:102B400088E294E00E9474728091AF4E82FF18C0B8
:102B5000E091331EF091341E309729F0828D938DD1
:102B6000803891054CF085E794E09F938F930E9405
:102B700038720F900F9004C088E294E00E94747243
:102B80008091AF4E83FF27C08091AE4E8A7AE0914C
:102B9000331EF091341E882351F0309729F0828D36
:102BA000938D8038910554F086E894E00EC03097FC
:102BB00051F0828D938D803891052CF488E294E059
:102BC0000E94747208C087E994E09F938F930E94DB
:102BD00038720F900F908091AF4E84FF18C0E09133
:102BE000331EF091341E309729F0828D938D8038FA
:102BF00091054CF088EA94E09F938F930E9438727D
:102C00000F900F90089588E294E00C9474720895E8
:102C10000E946C15A8950FB6F894A8958091600055
:102C2000886180936000109260000FBE0E94DE1DDC
:102C30000C94686D1F920F920FB60F9211240E9490
:102C40006C159091BF0080914F011F929F931F922E
:102C50008F938AED94E09F938F930E9438729091A6
:102C600051018091E0001F929F931F928F938EEFEE
:102C700094E09F938F930E9438729BB38CB31F9202
:102C80009F931F928F9389E195E09F938F930E946A
:102C90003872749866E572E080E00E943B221F92D1
:102CA0000F920FB60F9211240BB60F922F933F93F2
:102CB0004F935F936F937F938F939F93AF93BF9344
:102CC000EF93FF9380911C1A806880931C1AE09107
:102CD000331EF091341E309729F0828D938D803809
:102CE00091054CF081E395E09F938F930E94387299
:102CF0000F900F9004C088E294E00E9474720E94CA
:102D00008717FF91EF91BF91AF919F918F917F9125
:102D10006F915F914F913F912F910F900BBE0F904C
:102D20000FBE0F901F9018950E94F51D0C944F1E1A
:102D3000240F351FF90131974FEA408331974EEF49
:102D4000408346E254E23197408331975083319774
:102D50001082319780833197908331971082319719
:102D60001082319780E880833197108231971082EA
:102D700031971082C90183971292E817F907E1F79A
:102D8000F901B4976083319770838AE182938F5FF2
:102D90008032E1F7C9018C9708950E941D238FB7F7
:102DA00078948DB79EB72091040230910502821B62
:102DB000930B90930102809300028091A44E909116
:102DC000A54E892B41F480910202909103029093C9
:102DD000A54E8093A44EA091331EB091341ECD9188
:102DE000CDBFDD91DEBFFF91EF91DF91CF91BF911C
:102DF000AF919F918F917F916F915F914F913F9193
:102E00002F911F910F91FF90EF90DF90CF90BF9087
:102E1000AF909F908F907F906F905F904F903F907A
:102E20002F901F900F900CBE0F900BBE0F900FBEF7
:102E30000F90089580911C1A87FD62C00F920FB603
:102E4000F8940F920BB60F920CB60F921F921124AA
:102E50002F923F924F925F926F927F928F929F92AA
:102E6000AF92BF92CF92DF92EF92FF920F931F9398
:102E70002F933F934F935F936F937F938F939F9382
:102E8000AF93BF93CF93DF93EF93FF93A091331E44
:102E9000B091341E0DB60D920EB60D920E941D23F8
:102EA000A091331EB091341ECD91CDBFDD91DEBF18
:102EB000FF91EF91DF91CF91BF91AF919F918F9152
:102EC0007F916F915F914F913F912F911F910F9142
:102ED000FF90EF90DF90CF90BF90AF909F908F903A
:102EE0007F906F905F904F903F902F901F900F902A
:102EF0000CBE0F900BBE0F900FBE0F90089508955B
:102F000081E090E09093321E8093311E089580916D
:102F10001C1A8F7780931C1A8091311E9091321E5B
:102F2000892B09F461C00F920FB6F8940F920BB67B
:102F30000F920CB60F921F9211242F923F924F9234
:102F40005F926F927F928F929F92AF92BF92CF9239
:102F5000DF92EF92FF920F931F932F933F934F9324
:102F60005F936F937F938F939F93AF93BF93CF9311
:102F7000DF93EF93FF93A091331EB091341E0DB6F3
:102F80000D920EB60D920E941D23A091331EB0919A
:102F9000341ECD91CDBFDD91DEBFFF91EF91DF916A
:102FA000CF91BF91AF919F918F917F916F915F91E1
:102FB0004F913F912F911F910F91FF90EF90DF90D4
:102FC000CF90BF90AF909F908F907F906F905F90C9
:102FD0004F903F902F901F900F900CBE0F900BBE04
:102FE0000F900FBE0F9018950895DC0191E2E0E07C
:102FF000F0E090935700E491EC93E2E0F0E09093DE
:103000005700E4911196EC931197E4E0F0E090936F
:103010005700E4911296EC931297E1E0F0E0909360
:103020005700949113969C930895282F22952F7002
:1030300033E0239FC0011124273010F482960895B5
:1030400083519F4F0895CF93DF93982F9F70C1E0D6
:10305000D0E001C0CC0F9A95EAF76230A9F0633056
:1030600069F0611120C00E941518FC012291C095E1
:103070002C232083FC012081C22311C00E9415183B
:10308000FC018291C82B0BC00E941518FC012291F3
:103090003C2F309523232083FC012081C22BC08349
:1030A00080E090E002C08FEF9FEFDF91CF91089515
:1030B000CF93C82F0E941518FC014081CF7021E0EA
:1030C00030E001C0220FCA95EAF7242B2083CF916C
:1030D0000895CF93C82F0E941518FC014081CF702E
:1030E00021E030E002C0220F331FCA95E2F720959D
:1030F000309524232083CF91089584E98093BC00E8
:103100008091BC0084FDFCCF1092BC00089594EA2D
:103110009093BC009091BC0097FFFCCF9091B900B8
:10312000987F983051F09091B900987F903129F0B4
:103130000E947D188FEF9FEF0895880F682B609392
:10314000BB0084E88093BC008091BC0087FFFCCF6B
:103150008091B900887F883151F08091B900887FD3
:10316000803429F00E947D188EEF9FEF089580E053
:1031700090E00895892B31F06BE370E08AE395E0ED
:103180000E94011E10921E1A10921D1A8BB18360AC
:103190008BB9809164008F77809364008091BC002C
:1031A0008B7F8093BC0088E48093B8008091B90045
:1031B0008C7F8093B9008091B9008093B900809191
:1031C000BC0084608093BC000895EF92FF920F933F
:1031D000CF93DF93762F7A01E901892B31F06BE8E9
:1031E00070E08AE395E00E94011E00FD2BC0452B94
:1031F00061F1209751F103FF05C0F7019E0194ECA6
:1032000044E815C061E0872F0E94871897FFF5CF2B
:1032100081EC9FEF1FC09093BC008091BC0087FFA2
:10322000FCCF8091BB0081932150310931F02130D6
:10323000310589F74093BC00F0CF02FD09C00E9420
:103240007D1806C080EC9FEF05C084EE9FEF02C0A2
:1032500080E090E0DF91CF910F91FF90EF90089583
:10326000EF92FF920F93CF93DF93762FEA017901CC
:10327000892B31F06DEB70E08AE395E00E94011E2E
:1032800000FD29C0209751F1232B41F103FF03C01A
:10329000FE0124E809C060E0872F0E94871897FF8D
:1032A000F7CF81EC9FEF22C0CF018C1B9D0B8E15B9
:1032B0009F05BCF481918093BB002093BC0080915A
:1032C000BC0087FFFCCF8091B900887F883261F312
:1032D00083EE9FEF0BC080EC9FEF08C084EE9FEF62
:1032E00005C002FF0E947D1880E090E0DF91CF9141
:1032F0000F91FF90EF900895CF93DF931F92CDB77A
:10330000DEB7892B31F061EE70E08AE395E00E9430
:10331000011E81E08983BE016F5F7F4F8DE19AE1DD
:103320000E94B92180E090E00F90DF91CF91089545
:10333000892B31F069EE70E08AE395E00E94011E6E
:103340008DE19AE10C94FC2114BE8AEA90E0382EBB
:103350008FB7F8949CE088E10FB6F894A895809315
:1033600060000FBE90936000FFCF20911C1A206870
:1033700020931C1A21E030E0A901062E02C0440F60
:10338000551F0A94E2F7FC01EE0FFF1FE80FF91F2B
:1033900002C0440F551FEA95E2F7E0911F1AF09121
:1033A000201A4E235F23452BA9F04CE0489FF001E3
:1033B000499FF00D1124EA5FFD4F0280F381E02D5B
:1033C0004081DB01119601C0220FAA95EAF72095F2
:1033D000242320832CE0289FD001299FB00D1124A5
:1033E000AA5FBD4F1696ED91FC91179718968D9197
:1033F0009C91199719950C9487178F929F92AF9271
:10340000BF92CF92DF92EF92FF920F931F93DC0156
:103410000397D8F4E9E5F5E090E0C12C84E2D82EDA
:1034200084EFE82EF12C46015701019004C0B694B8
:10343000A794979487940A94D2F79F5F8416950671
:10344000A606B70629F0953071F78FEF9FEF1EC0E3
:103450008CE08A9FF0018B9FF00D1124EA5FFD4FF5
:10346000A081B1811C9211961C92119712961C9208
:10347000129715961C921E921497378326831187F4
:103480000087928711969C9380E090E01F910F91A6
:10349000FF90EF90DF90CF90BF90AF909F908F9074
:1034A00008950F931F93CF93DF93633071050CF052
:1034B0004FC0CFB7F8942CE0289FF001299FF00D62
:1034C0001124EA5FFD4F20813181DB011496AA0FA0
:1034D000BB1FA20FB31F11965C934E9304811581FD
:1034E000D801DC91AB014F5F5F4F21E030E0D901A3
:1034F00002C0AA0FBB1F4A95E2F7AD015A2F5095A3
:103500005D23D8015C930280F381E02D5081452B2F
:10351000408302C0220F331F6A95E2F7AC01440FCB
:10352000551F840F951F02C0220F331F8A95E2F7A3
:1035300080911F1A9091201A282B392B3093201A32
:1035400020931F1AF894C7FD789480E090E002C0A1
:103550008FEF9FEFDF91CF911F910F9108952FB7BC
:10356000F8943CE0389FF001399FF00D1124EA5F98
:10357000FD4F0190F081E02D84819581F89427FD25
:10358000789408951F920F920FB60F9211240BB6E4
:103590000F922F933F934F935F936F937F938F93EC
:1035A0009F93AF93BF93EF93FF9360E070E080E051
:1035B00090E00E94B519FF91EF91BF91AF919F915B
:1035C0008F917F916F915F914F913F912F910F90CC
:1035D0000BBE0F900FBE0F901F9018951F920F9269
:1035E0000FB60F9211240BB60F922F933F934F9368
:1035F0005F936F937F938F939F93AF93BF93EF935B
:10360000FF9361E070E080E090E00E94B519FF91C7
:10361000EF91BF91AF919F918F917F916F915F914A
:103620004F913F912F910F900BBE0F900FBE0F90B7
:103630001F9018951F920F920FB60F9211240BB680
:103640000F922F933F934F935F936F937F938F933B
:103650009F93AF93BF93EF93FF9362E070E080E09E
:1036600090E00E94B519FF91EF91BF91AF919F91AA
:103670008F917F916F915F914F913F912F910F901B
:103680000BBE0F900FBE0F901F9018951F920F92B8
:103690000FB60F9211240BB60F922F933F934F93B7
:1036A0005F936F937F938F939F93AF93BF93EF93AA
:1036B000FF9360E070E081E090E00E94B519FF9117
:1036C000EF91BF91AF919F918F917F916F915F919A
:1036D0004F913F912F910F900BBE0F900FBE0F9007
:1036E0001F9018951F920F920FB60F9211240BB6D0
:1036F0000F922F933F934F935F936F937F938F938B
:103700009F93AF93BF93EF93FF9361E070E081E0ED
:1037100090E00E94B519FF91EF91BF91AF919F91F9
:103720008F917F916F915F914F913F912F910F906A
:103730000BBE0F900FBE0F901F9018951F920F9207
:103740000FB60F9211240BB60F922F933F934F9306
:103750005F936F937F938F939F93AF93BF93EF93F9
:10376000FF9362E070E081E090E00E94B519FF9164
:10377000EF91BF91AF919F918F917F916F915F91E9
:103780004F913F912F910F900BBE0F900FBE0F9056
:103790001F9018951F920F920FB60F9211240BB61F
:1037A0000F922F933F934F935F936F937F938F93DA
:1037B0009F93AF93BF93EF93FF9360E070E082E03D
:1037C00090E00E94B519FF91EF91BF91AF919F9149
:1037D0008F917F916F915F914F913F912F910F90BA
:1037E0000BBE0F900FBE0F901F9018951F920F9257
:1037F0000FB60F9211240BB60F922F933F934F9356
:103800005F936F937F938F939F93AF93BF93EF9348
:10381000FF9361E070E082E090E00E94B519FF91B3
:10382000EF91BF91AF919F918F917F916F915F9138
:103830004F913F912F910F900BBE0F900FBE0F90A5
:103840001F9018951F920F920FB60F9211240BB66E
:103850000F922F933F934F935F936F937F938F9329
:103860009F93AF93BF93EF93FF9362E070E082E08A
:1038700090E00E94B519FF91EF91BF91AF919F9198
:103880008F917F916F915F914F913F912F910F9009
:103890000BBE0F900FBE0F901F90189520911C1A11
:1038A000206820931C1AFC01EE0FFF1FE25AFA4F0A
:1038B0000190F081E02D6681880F991F880F991F74
:1038C000DC01AF5DB54EED91FC91119712968D9193
:1038D0009C91139719950C948717EF92FF920F9371
:1038E0001F93CF93DF9379018230910508F046C092
:1038F00020E030E0E0911C1AE37019F0215031090A
:10390000C9F7FC01EE0FFF1FEE0FFF1FEF5DF54E35
:10391000F182E08213830283880F991FFC01E25A2F
:10392000FA4FC081D1811982188286E08A83DB0137
:10393000CA0180589B47A14EBF4FE3E0880F991FF3
:10394000AA1FBB1FEA95D1F79A01AB01F4E0220F41
:10395000331F441F551FFA95D1F7BC01CD010E94BA
:10396000B46D215031093D832C83EF2811F088ED8F
:1039700001C088E4898380E090E002C08FEF9FEF70
:10398000DF91CF911F910F91FF90EF900895CF930A
:10399000DF939C0191E0022E01C0990F0A94EAF78F
:1039A000DB01460F571F220F331FF901E25AFA4F6E
:1039B0009F01A417B507B1F0C081D181888185FF2F
:1039C000FDCF6FB7F89480911C1A892B80931C1A35
:1039D000F89467FD7894E901688179818D91EB0114
:1039E0008E83E7CFDF91CF9108951F920F920FB68C
:1039F0000F9211240BB60F922F933F934F935F9327
:103A00006F937F938F939F93AF93BF93EF93FF93A6
:103A100080E090E00E944E1CFF91EF91BF91AF912A
:103A20009F918F917F916F915F914F913F912F91D6
:103A30000F900BBE0F900FBE0F901F9018951F9206
:103A40000F920FB60F9211240BB60F922F933F9344
:103A50004F935F936F937F938F939F93AF93BF9396
:103A6000EF93FF9381E090E00E944E1CFF91EF9155
:103A7000BF91AF919F918F917F916F915F914F9186
:103A80003F912F910F900BBE0F900FBE0F901F9084
:103A900018951F920F920FB60F9211240BB60F922A
:103AA0002F933F934F935F936F937F938F939F9346
:103AB000AF93BF93EF93FF9380911C1A8E7F806822
:103AC00080931C1A0E948717FF91EF91BF91AF91CD
:103AD0009F918F917F916F915F914F913F912F9126
:103AE0000F900BBE0F900FBE0F901F9018951F9256
:103AF0000F920FB60F9211240BB60F922F933F9394
:103B00004F935F936F937F938F939F93AF93BF93E5
:103B1000EF93FF9380911C1A8D7F806880931C1A0D
:103B20000E948717FF91EF91BF91AF919F918F9165
:103B30007F916F915F914F913F912F910F900BBEAD
:103B40000F900FBE0F901F9018950E94E1400E94A9
:103B5000506A0E942B420E94CB2F0E94132E82E6B5
:103B600095E09F938F930E9438720F900F900C9462
:103B70009C55CF93DF931F92CDB7DEB761E070E025
:103B8000CE0101960E947A668981082E000C990B5D
:103B90000F90DF91CF910895CF93DF931F92CDB710
:103BA000DEB7898361E070E0CE0101960E948066F5
:103BB00080E090E00F90DF91CF9108950E946966B8
:103BC000E8EAFEE488E392E0938382838AE292E06B
:103BD0009183808384E795E00C9474728DB1886141
:103BE0008DB98EB188618EB90895E1E6F0E080E884
:103BF000808310820E9408160E94EE1D8FB7789471
:103C000008957F936F939F938F9386E795E09F939B
:103C10008F930E94387265E976E083E00E943B2230
:103C20002FB7F894FC0180819181F89427FD789456
:103C30000895FC019FB7F89471836083F89497FD11
:103C400078940895FC012FB7F89480819181680FD2
:103C5000791F71836083F89427FD78940895FC019F
:103C60002FB7F89480819181AC01461B570B51838B
:103C70004083F89427FD789408950E94A51D80E85C
:103C800095E09F938F930E9438720E9412090F90C3
:103C90000F9080E090E008950E946F6DFDCF8FB788
:103CA000F89481ECC82E85E0D82EE12CF12C0CE4A0
:103CB0001EE12CE030E04FE060EC70E089E29AE138
:103CC0000E94DC2496ECC92E95E0D92E0DE31EE16E
:103CD0002CE030E047E060E273E089EE9AE10E9478
:103CE000DC240E94CD161F93CF93DF93EC01162F97
:103CF0006CE00E947B238B8190E0F89417FD789410
:103D0000DF91CF911F910C940C24EF92FF921F939F
:103D1000CF93DF937C01162FC091331ED091341EB8
:103D200069E0CE010E947B23BE01C7010E94AD2441
:103D3000F89417FD7894DF91CF911F91FF90EF9049
:103D40000C9491240F931F93CF93DF93EC018B017D
:103D50002FB7F894622F70E0E881F981309791F0E5
:103D60008081918199838883CF010897FC01A28586
:103D7000B38528E0F80101900D922A95E1F70E94A1
:103D8000731E35C08E819F81EC81FD818E1B9F0B40
:103D9000E885F985E817F90744F4452B59F1CE0178
:103DA00002960E94851E6FB7F8948091791E9091BB
:103DB0007A1EF801918380832A853B85AE81BF817D
:103DC000CD0101969F838E8388859985A823B92389
:103DD00083E0AA0FBB1F8A95E1F7A20FB31F88E00B
:103DE00001900D928A95E1F7F89467FD789481E04F
:103DF00090E005C0F89427FD789480E090E0DF9192
:103E0000CF911F910F910895CF93DF93EC01DB01C8
:103E10002FB7F894622F70E0EC81FD818E819F8135
:103E20008E179F0719F14A855B85CF0101969D8307
:103E30008C8388859985E823F92383E0EE0FFF1FA3
:103E40008A95E1F7E40FF51F88E001900D928A95BD
:103E5000E1F78A819B810097D9F0FC0120813181B3
:103E60003B832A8308970E94731E15C0452B51F08F
:103E7000E091331EF091341EB387A287CE010E94D9
:103E8000851E09C0F89427FD789480E090E005C075
:103E9000F89427FD789481E090E0DF91CF91089528
:103EA000FF920F931F93CF93DF93FFB6F894C091C7
:103EB000331ED091341E2C893D89232B99F12E85F8
:103EC0003F85488959894217530761F1A9014F5F1E
:103ED0005F4F5F874E874A895B8924233523672B91
:103EE00071F44C855D85452B51F42F3F4FEF34071E
:103EF00031F4F894F7FC78948FEF9FEF89C037FD89
:103F000015C0EC89FD89A90163E0440F551F6A952E
:103F1000E1F7E40FF51F48E0DC0101900D924A95AE
:103F2000E1F706C02FEF3FEF672BD9F29B878A8717
:103F3000EC85FD85309709F44FC0408151815D8744
:103F40004C878F010850110937FD1FC08C899D894E
:103F5000488959892A893B896E857F85DA01A61BA4
:103F6000B70B2A173B0744F0BA016F5F7F4F798B7D
:103F7000688B2423352302C02FEF3FEF43E0220F4D
:103F8000331F4A95E1F7820F931FD8011A96ED91DE
:103F9000FC911B9728E0DC0101900D922A95E1F736
:103FA000F8018281863059F0138612866CE0C801D0
:103FB0000E947B23D80113968C9190E002C08FE081
:103FC00090E0F894F7FC78948F30910510F40E94FB
:103FD0000C2481E090E01CC037FF16C064E0CE01E5
:103FE0000E947B23F894F7FC78940E941A17E091C2
:103FF000331EF091341E8281843059F762E871E0FB
:104000008BEC95E00E94011EF894F7FC7894E1CFC8
:10401000DF91CF911F910F91FF900895CF93DF9380
:10402000EC01A889B9898A899B892E853F85AD01D4
:10403000421B530B841795071CF480E090E022C0CC
:104040009D012F5F3F4F398B288BA823B923B7FDE4
:10405000F4CFFB0183E0AA0FBB1F8A95E1F78C899F
:104060009D89A80FB91F88E001900D928A95E1F70C
:104070008E819F8190689F838E83CE010E947C25D4
:1040800081E090E0DF91CF910895CF92DF92EF929F
:10409000FF920F931F93CF93DF93660F771FFB0160
:1040A000E95CF14EC081D1816091791E70917A1ED8
:1040B000FC0171836083209731F4F89427FD789494
:1040C0008FEF9FEF4AC0122F042F7C018A8184302A
:1040D00091F1C090331ED090341EBF01CE010E94DA
:1040E0000E20009741F0F89417FD7894F601828134
:1040F000863089F52EC0011104C0F89417FD78941C
:104100002CC0F601F386E2868281863011F065E0EC
:1041100001C066E0C6010E947B23B601CE010C9669
:104120000E94AD248E819F8190689F838E83CE01F3
:104130000E947C250BC0AA85BB8588E001900D926A
:104140008A95E1F76CE0CE010E947B23F89417FD7D
:1041500078940E941A1781E090E0DF91CF911F912F
:104160000F91FF90EF90DF90CF900895CF93DF9362
:10417000DB01AA0FBB1FA95CB14ECD91DC9120974A
:10418000E1F02A81243099F4FC01AA85BB8588E0FE
:1041900001900D928A95E1F76CE0CE010E947B239D
:1041A00081E090E09093321E8093311E08C0BC01E4
:1041B000CE01DF91CF910C940E208FEF9FEFDF9116
:1041C000CF910895CF93CFB7F8942091791E309175
:1041D0007A1EFC0131832083BC018091331E9091B3
:1041E000341E0E940E20F894C7FD7894CF91089554
:1041F00021E230E0FC01318320830C94B620209131
:104200001C1A27FD0C94F8202091791E30917A1EFB
:104210006217730711F40C94E2202FB7F89430E082
:1042200041E00C94452020911C1A27FD0C94F820A5
:104230002091791E30917A1E6217730711F40C9445
:10424000E2202FB7F89430E040E00C944520AF9284
:10425000BF92CF92DF92EF92FF921F93CF93DF93A3
:104260005C01EB017A018091791E90917A1E4817CA
:10427000590731F46FE071E08BEC95E00E94011E6C
:104280001FB7F894C090331ED090341E66E0C6016C
:104290000E947B23F601D387C28788E0F501DE0107
:1042A00001900D928A95E1F7212F30E041E0B701AE
:1042B000CE01DF91CF911F91FF90EF90DF90CF90D3
:1042C000BF90AF900C9445201F93CF93DF931FB7FF
:1042D000F894FC01A081B181AA0FBB1FA95CB14E6B
:1042E000CD91DC91209731F462E271E08BEC95E0A6
:1042F0000E94011E8A81863031F0F89417FD78946F
:104300008FEF9FEF15C0AA85BB8588E0FB01019068
:104310000D928A95E1F76CE0CE010E947B238B81A0
:1043200090E0F89417FD78940E940C2481E090E0CE
:10433000DF91CF911F91089561E070E00C94501FC0
:10434000E091331EF091341E958B848BCB01019745
:1043500068237923672B31F06DE370E08BEC95E0F7
:104360000E94011E17861686118A108A938B828BF3
:104370000895FF920F931F93CF93DF93EC01FFB645
:10438000F89488819981892B41F48FEF9FEF99836D
:104390008883F894F7FC789421C0FB0180818823FE
:1043A00001F10091331E1091341E63E0C8010E9498
:1043B0007B2388819981019641F4C80108969983ED
:1043C0008883F8011186108604C0B801CE010E94CE
:1043D000AD24F894F7FC78940E941A1781E090E0DD
:1043E00005C0F894F7FC789480E090E0DF91CF91DD
:1043F0001F910F91FF900895FF920F931F93CF93FA
:10440000DF93FFB6F894DC01ED91FC91309739F021
:10441000EF3FBFEFFB0761F4FC0111821082F894BB
:10442000F7FC7894DF91CF911F910F91FF90089541
:104430008C0180819181D8018D939C93EF01289705
:104440006CE0CE010E947B23F80180819181892B51
:1044500021F48FEF9FEF918380838B8190E0F8941C
:10446000F7FC7894DF91CF911F910F91FF900C94FE
:104470000C2408950895182FEB018091091E909146
:104480000A1E892B09F03CC081E090E090930A1E3F
:104490008093091E133091F40EB6202D0DB6802D99
:1044A00090E0922B9F938F9383E496E09F938F935A
:1044B0000E9438720F900F900F900F90BE01812FC5
:1044C0000E943A22DF93CF938AE596E09F938F93E1
:1044D0000E9438720E945D3F82E896E09F938F931E
:1044E0000E94387286E796E09F938F930E943872FD
:1044F0008DB79EB708960FB6F8949EBF0FBE8DBFBE
:104500008FB7F8940E94392284E896E09F938F93A6
:104510000E9438720E94A4190E946C6DAF92BF92E3
:10452000CF92DF92EF92FF920F931F93CF93DF937F
:104530001F921F92CDB7DEB78C015B011A82BE01BC
:104540006E5F7F4F0E94B9217C01C80104966C0107
:10455000E114F104A9F460E070E00E94101E2091C3
:10456000791E30917A1E8217930751F0AB28D1F44F
:1045700081E08983BE016F5F7F4FC8010E94B9212E
:104580006091791E70917A1E40E050E0C6010E9451
:10459000191EF80182819381019693838283EE2410
:1045A000E394F12CC7010F900F90DF91CF911F91F1
:1045B0000F91FF90EF90DF90CF90BF90AF90089554
:1045C00060E070E00C948E220F931F93CF93DF93E3
:1045D000EC018C010C5F1F4F60E070E0C8010E948D
:1045E000101E2091791E30917A1E8217930719F0C0
:1045F00063E870E006C08A819B81009731F464E82B
:1046000070E087EA96E00E94011E01979B838A83EF
:10461000892B71F440E050E060E070E0C8010E9436
:10462000191ECE01DF91CF911F910F910C94FC21A7
:10463000DF91CF911F910F910895CF93DF93A091B8
:10464000331EB091341E1092321E1092311E2091F2
:104650000D1E30910E1E80E090E020FD04C03695C6
:1046600027950196FACF880F991FFC01EF5EF14E56
:104670000190F081E02DC081D18128978BE08A8361
:10468000E0910B1EF0910C1EAC17BD0749F430975A
:1046900071F1209761F5609104007091050024C0CC
:1046A000109791F012968C9112978B3021F48CE038
:1046B00012968C931297309739F060E070E0149660
:1046C0008D919C91159719956C817D8170937A1EBF
:1046D0006093791ED093341EC093331EE0910B1E5D
:1046E000F0910C1E309719F080E090E01995CE0102
:1046F000DF91CF9108950F931F93CF93DF93FC0128
:1047000082816B30E0F18B3008F080C09F01285F20
:104710003F4F838190E0880F991FDC01AF5EB14E5F
:10472000CD91DC911197209751F0488159815187A3
:1047300040870D90BC91A02D2D933C9302C03187F2
:104740002087DC01AF5EB14E2D933C9381E090E079
:10475000038002C0880F991F0A94E2F7092E000C0B
:10476000AA0BBB0B00910D1E10910E1E20910F1E67
:104770003091101E802B912BA22BB32B3FC08B307E
:1047800008F444C0A381B0E0AA0FBB1FAF5EB14ED6
:10479000CD91DC911197209769F088819981C81794
:1047A000D90719F41D921C9205C0DC018D919C91D2
:1047B000998388832381A22FB0E0AA0FBB1FAF5E2D
:1047C000B14E8D919C91892B09F581E090E002C05A
:1047D000880F991F2A95E2F780959095092E000C75
:1047E000AA0BBB0B00910D1E10910E1E20910F1EE7
:1047F0003091101E80239123A223B32380930D1E9A
:1048000090930E1EA0930F1EB093101E6283DF9133
:10481000CF911F910F910895E091331EF091341EB6
:1048200022812B3028F0238130E08217930768F42F
:1048300080911C1A87FF07C081E090E09093321EA0
:104840008093311E08950C941A1708958FB7F89429
:10485000E091791EF0917A1EEE0FFF1FE95CF14E98
:10486000118210828091351E9091361E019790938F
:10487000361E8093351E60E08091331E9091341E69
:104880000E947B231092341E1092331E0E94CD167C
:1048900090930C1E80930B1E0895CF9380911C1A49
:1048A00087FD0FC0CFB7F89462E08091331E9091DE
:1048B000341E0E947B23F894C7FD7894CF910C940A
:1048C0001A17CF9108951F93CF93DF931FB7F894D2
:1048D0009C012150310920323105D0F4880F991FF5
:1048E000FC01E95CF14EC081D181209789F08A8179
:1048F000823071F46BE0CE010E947B23F89417FDA7
:1049000078948B8190E00E940C2481E090E005C0B7
:10491000F89417FD78948FEF90E0DF91CF911F917D
:1049200008958FB7F894E091331EF091341E928170
:104930009B3070F0E381F0E0EE0FFF1FEF5EF14E71
:10494000A081B181109721F02D913C91318320837A
:10495000F89487FD78940C941A17FB0122812B3070
:1049600030F069E970E085EB96E00E94011E6381FA
:10497000AF01485F5F4FDC012D913C91211531055E
:1049800041F0D901189713967C91671710F0C9016F
:10499000F2CF31872087FC01518340830895FC01C9
:1049A000208131812E173F0711F43296F9CF9F01F4
:1049B000281B390BC90108954F925F927F928F9205
:1049C0009F92AF92BF92CF92DF92EF92FF920F939E
:1049D0001F93CF93DF93FC012B01522F403158F5E9
:1049E0009B012C513109EC01C20FD31F53FF08C0AA
:1049F0008C179D0738F4DC018D939C930296F8CFB9
:104A0000918380839FB6F89489E39EE1AA24A394BE
:104A1000B12CDC016D917D91CD01672B71F0BFEF61
:104A2000AB1ABB0A61E2A616B10499F7F89497FC99
:104A300078948FEB50C084EE4EC0B701C801752E3C
:104A4000842E8F01F501EE0FFF1FE95CF14ED1833B
:104A5000C083BD82AC82A8010E9498169983888386
:104A60001F8B0E8B5B8E4A8ED98EC88E8B821A82DC
:104A7000198618861B861A861D861C861F861E862A
:104A8000198A188A8FEF9FEF9B8B8A8B1D8A1C8A4D
:104A90008091351E9091361E01969093361E80931C
:104AA000351E70FE05C062E0CE010E947B230EC061
:104AB0006CE0CE010E947B2372FC08C0F89497FC46
:104AC0007894882D90E00E940C2403C0F89497FC01
:104AD0007894C50101C09FEFDF91CF911F910F9195
:104AE000FF90EF90DF90CF90BF90AF909F908F900E
:104AF0007F905F904F900895CF93DF93FC01C28524
:104B0000D3858281873019F0883031F01EC026812C
:104B10003781C223D3230CC0868197818C239D23A8
:104B200031E020E08C179D0709F030E0C32FD22F31
:104B3000209769F0CF016CE00E947B2381E090E038
:104B40009093321E8093311E02C0C0E0D0E0CE01AF
:104B5000DF91CF9108950C946A0D0F931F93CF931B
:104B6000DF93EC018B018E81823041F0B801CE01E0
:104B7000DF91CF911F910F910C94E7378F818111B5
:104B8000F5CF80E090E00E94AB25892B79F7DF918B
:104B9000CF911F910F910895009771F0FC01208132
:104BA000222351F08191882321F080538A30D0F361
:104BB00003C081E090E0089580E090E008950097C0
:104BC00089F0E62FE295EF70F0E0ED53F94F208188
:104BD000FC0120836F70E62FF0E0ED53F94F208148
:104BE000FC01218382E090E00895FC01AF014F5F5A
:104BF0005F4F2081222311F0FA01F8CF9F01281B7B
:104C0000390BC90108958F929F92AF92BF92CF92B4
:104C1000DF92EF92FF920F931F93CF93DF93FC01EC
:104C20006A017B0141155A4C6A497B4398F42AE09A
:104C300030E040E050E0C1E0D0E0C216D306E40628
:104C4000F50650F0AAE0B0E00E94E56D9B01AC01D2
:104C50002196F3CFCAE0D0E03097C9F08F010C0F56
:104C60001D1F8AE0882E912CA12CB12CC701B60102
:104C7000A50194010E94B46D605DF80162938F01FB
:104C800069017A01C114D104E104F10479F7CE017C
:104C9000DF91CF911F910F91FF90EF90DF90CF9018
:104CA000BF90AF909F908F900895AB0160E070E04F
:104CB0000C9403262091AA4E3091AB4E41E050E077
:104CC0000C94F671CF93DF93EC010E94F525BC01A3
:104CD000CE01DF91CF910C945A26EF92FF920F9361
:104CE0001F93CF93DF93CDB7DEB767970FB6F894D6
:104CF000DEBF0FBECDBF698B5B8B4A8B3D8B2C8B90
:104D00001F8B0E8BFC86EB869E012F5E3F4F3E87EE
:104D10002D87AC01BE016F5F7F4FCE0109960E94C7
:104D200027218B819C818530924031F060E370E0D7
:104D300083ED96E00E94011E8D819E8167960FB6DD
:104D4000F894DEBF0FBECDBFDF91CF911F910F91C1
:104D5000FF90EF900895CF93DF93CDB7DEB72897FC
:104D60000FB6F894DEBF0FBECDBF5C834B837E834E
:104D70006D83BC01CE0101960E94132128960FB6C7
:104D8000F894DEBF0FBECDBFDF91CF9108958F9213
:104D90009F92AF92BF92CF92DF92EF92FF920F93CA
:104DA0001F93CF93DF93C82F4A015B0169010E94D3
:104DB000412E7C01892B19F1B501A4018C2F0E9491
:104DC0003A2EEC01B70161507109C8010E942531EA
:104DD0002097A9F0A601B8018E819F810E94AB2681
:104DE000181619063CF04DE150E060E070E0C80193
:104DF0000E944131CE010E94612EEC01E9CFC70132
:104E0000DF91CF911F910F91FF90EF90DF90CF90A6
:104E1000BF90AF909F908F900895CF93DF93EB0159
:104E2000FC0167A970ADCE010E945526C80FD91F9D
:104E30001882DF91CF910895EF92FF920F931F9305
:104E400074E0E72E72E0F72EFC0187A990AD0E9476
:104E50006D261F910F91FF90EF900895EF92FF92B2
:104E60000F931F9373E0E72E72E0F72EFC0187A9E2
:104E700090AD0E946D261F910F91FF90EF900895C5
:104E8000CF93DF93EC01E881F9810284F385E02D73
:104E900021E030E04EE557E06DE11995E881F981B8
:104EA0000284F385E02D21E030E04EE557E06FE12C
:104EB000CE01DF91CF9119940F931F93CF93DF937E
:104EC000EC010C811D810E94142BAE01445D5F4FEB
:104ED000D801ED91FC910084F185E02D28E030E0CF
:104EE000682FC8011995833CBFEF9B0771F048A557
:104EF00059A56AA57BA5416048A759A76AA77BA7C2
:104F0000181619065CF48CAB09C08CA9882331F003
:104F100064E774E085EF96E00E94011EDF91CF9177
:104F20001F910F910895EF92FF920F931F93CF93CC
:104F3000DF93CDB7DEB728970FB6F894DEBF0FBE6C
:104F4000CDBFFC01A481B58161111CC0CE010196C9
:104F500028E0FC0111922A95E9F724E332E13C8331
:104F60002B83BE83AD83D7966D917C91D8970E9499
:104F7000FF20181619060CF44DC085E197E00E9439
:104F8000747248C0643029F16730A1F1623009F0D1
:104F900041C01296ED91FC9113970480F581E02DAC
:104FA000CD0119957C010097A9F18C0121E032E037
:104FB00040E050E06FEF7FEFFC0180850E94C72644
:104FC000892B41F540E050E0BA01C7010E94413110
:104FD00021C054964D915D916D917C9157974F5F93
:104FE0005F4F6F4F7F4F54964D935D936D937C93BE
:104FF000579710C058964D915D916D917C915B973C
:105000004F5F5F4F6F4F7F4F58964D935D936D93FA
:105010007C935B9728960FB6F894DEBF0FBECDBF8A
:10502000DF91CF911F910F91FF90EF9008957F92A4
:105030008F929F92AF92BF92CF92DF92EF92FF92A8
:105040000F931F93CF93DF93EC015B014A01722E04
:105050001F821E82198618861B861A86DB82CA82E8
:105060000E940E3E8C819D81892B19F063E570E0D2
:1050700012C0FD82EC8268017E0101EA18E228E09C
:1050800030E0472DB401C5010E94DC241816190632
:1050900034F068E570E085EF96E00E94011E80E044
:1050A00090E0DF91CF911F910F91FF90EF90DF90F3
:1050B000CF90BF90AF909F908F907F900895CF93A7
:1050C000DF93C0E0D0E080E090E00E94213E0097B6
:1050D00039F0FC0122813381232BB9F32196F5CFDE
:1050E000CE01DF91CF9108950C94213ECF93DF93B1
:1050F000EC0180E090E00E94213E009739F0FC0135
:1051000027A930AD2C173D07B1F702C080E090E031
:10511000DF91CF910895009741F0FC012281338106
:10512000232B19F006960C94E0220895009741F085
:10513000FC0122813381232B19F006960C94E42282
:105140000895CF92DF92EF92FF920F931F93CF9328
:10515000DF93CDB7DEB7C059D1090FB6F894DEBFE3
:105160000FBECDBF8C016E0129E8C20ED11C88E0B4
:10517000D6011D928A95E9F785E092E0F6019383C6
:105180008283C8010E948B28D8011496ED90FC9070
:1051900015978091791E90917A1ED8969C938E9344
:1051A000D79760E170E0CE0101960E94A02183E9CB
:1051B00097E2F70193838283158304830190F08142
:1051C000E02D0480F581E02DC701199597FDACC055
:1051D000C7010E944027D8011296ED91FC911397C8
:1051E0000190F081E02DC801199580917B1E8111FD
:1051F00006C067EE75E085EF96E00E94011E4CE167
:1052000050E060E070E0C8010C960E940271C80195
:105210000E949628CE018F579F4F0E949C21CD5708
:10522000DF4F88819981C358D0408330B2E09B071B
:10523000D9F120F48230924099F065C0843022E0A8
:10524000920709F440C08433924109F05CC0D70151
:10525000ED91FC910680F781E02DC7011995DACF19
:10526000CB57DF4F68817981C558D040D80112965D
:10527000ED91FC9113970280F381E02DC8011995FF
:1052800097FDC8CF092E000CAA0BBB0BF801448D6B
:10529000558D668D778D840F951FA61FB71F848F40
:1052A000958FA68FB78FB6CFCB57DF4F68817981A7
:1052B000C558D040D8011296ED91FC911397008407
:1052C000F185E02D0EC0CB57DF4F68817981C5583D
:1052D000D040D8011296ED91FC9113970680F7818A
:1052E000E02DC8011995092E000CAA0BBB0BF60185
:1052F00084839583A683B783B601CE018F579F4FD2
:105300000E94642187CFD8011296ED91FC911397EA
:105310000284F385E02D309709F47CCFBE016F57EE
:105320007F4FC801199576CF9F938F938AE397E0BB
:105330009F938F930E943872D80113961C921E92ED
:105340001297D8961C921E92D79715961C921E9271
:105350001497F70113821282158214820F900F9016
:105360000F900F9080E090E0C057DF4F0FB6F89499
:10537000DEBF0FBECDBFDF91CF911F910F91FF9088
:10538000EF90DF90CF9008950F931F93CF93DF930B
:105390008C01EB010E948B2868812D813E816C324B
:1053A00009F1603419F0673081F50AC02130310508
:1053B00019F067E870E009C0EB81FC8110820FC032
:1053C0002130310531F06DE870E085EF96E00E9404
:1053D000011EEB81FC81D801D5968C918083C1E0C0
:1053E000D0E020C089819A81019779F4223031057B
:1053F00019F06DE970E0E9CFEB81FC81C8010C96F2
:1054000091838083C2E0D0E00DC0F8018481958152
:105410004B815C81DC01ED91FC910084F185E02DF4
:105420001995EC01C8010E949628CE01DF91CF9119
:105430001F910F910895EF92FF920F931F93CF93B7
:10544000DF93EC018B010E948B28D8016C9115969B
:105450000D90BC91A02D673041F0F801438154813B
:105460008C819D816B3189F02DC0119731F063E102
:1054700071E085EF96E00E94011ED8011396ED9130
:10548000FC91149780818DAB19C0FA01608108A549
:1054900019A52AA53BA5613011F4216001C02E7F1A
:1054A00008A719A72AA73BA7FC0120813181F90190
:1054B000028513859D016BE1F8011995EE24E394B3
:1054C000F12C26C0FC0120813181F901E284F384B2
:1054D0009D01F70119957C0118161906CCF4D80125
:1054E0008C918230A8F0863018F08A3129F010C0F3
:1054F000CE010E945C270CC0D8011396ED91FC915F
:1055000014978081853021F48C819D810E944027F1
:10551000CE010E949628C701DF91CF911F910F9174
:10552000FF90EF9008950F931F93CF93DF931F92F7
:105530001F92CDB7DEB78C01DC0114968D919C9142
:105540001597DC01ED91FC910084F185E02D22E0BE
:1055500030E0AE014F5F5F4F68E21995029719F096
:1055600063E874E01EC08981F80186ABC8010E941F
:105570005C27D801D696EC918E2F90E0FC013397F2
:10558000E830F10508F040C0D80198969C91882732
:10559000E656FF4F8F4F0C94D66D90FD06C066EB1C
:1055A00074E085EF96E00E94011EF80184A9863020
:1055B00071F167EB74E0F5CF90FD03C06BEC74E024
:1055C000F0CFD801D4968C91823009F18830F9F06F
:1055D0006DEC74E0E6CF90FD03C065EE74E0E1CFC2
:1055E000F80184A9813099F066EE74E0DACF90FF7B
:1055F00003C06DEE74E0D5CFD801D4968C9188238A
:1056000031F06EEE74E0CDCF65EF74E0CACF81E08B
:1056100080937B1E80E4F80185AB0F900F90DF91A3
:10562000CF911F910F910895CF93DF931F921F92F7
:10563000CDB7DEB7DC01D6962C9124502230F0F4A1
:10564000FC0184819581DC01ED91FC910084F18560
:10565000E02D22E030E0AE014F5F5F4F65E019952D
:10566000029731F062E370E08FE597E00E94011E3F
:1056700089819A81089711F483E001C082E00F903C
:105680000F90DF91CF9108958F929F92AF92BF922A
:10569000CF92DF92EF92FF920F931F93CF93DF93FE
:1056A0006C01862E8A01922EA62EB12CE22EF12CB0
:1056B000A701485F5F4F4A0D5B1D2FEF60E070E070
:1056C00080E090E00E94DD2FEC01892B79F1EA81E6
:1056D000FB81808291821382128217821682158248
:1056E0001482C114D10469F0882059F08A819B8109
:1056F000FC012081821205C0A501B60108960E9416
:10570000F97001151105A9F0992099F0EA81FB8142
:10571000818198120EC09081892F90E00896A70190
:10572000B8018E0F9F1F0E94F97003C080E090E0C7
:1057300001C0CE01DF91CF911F910F91FF90EF90AB
:10574000DF90CF90BF90AF909F908F90089540E0F2
:1057500050E0BA010C9441312F923F924F925F92E8
:105760006F927F928F929F92AF92BF92CF92DF9271
:10577000EF92FF920F931F93CF93DF93CDB7DEB7D6
:1057800065970FB6F894DEBF0FBECDBF6C01DC018C
:105790001496AD90BC901597D501ED91FC910280C7
:1057A000F381E02D20E030E040E050E060E070E088
:1057B000C50119958C01833091050CF414C120E0CA
:1057C000AC0160E070E080E090E00E94DD2F7C01A1
:1057D000D501ED91FC91009709F40BC1DC01129603
:1057E0006D917C9113970280F381E02D9E012F5ED5
:1057F0003F4FA801C50119954C01181619060CF068
:1058000069C0F60180A191A1A2A1B3A10196A11D39
:10581000B11D80A391A3A2A3B3A344A155A166A1E6
:1058200077A1C401092C000CAA0BBB0B840F951F98
:10583000A61FB71F84A395A3A6A3B7A380A591A570
:10584000A2A5B3A5A0FF30C020E040E050E060E09A
:1058500080E090E00E94442B0097E1F1DC01129679
:10586000ED91FC9113972B89258329893A893783F8
:105870002683C114D10431F0D601D7962D913C91E5
:10588000D89702C020E030E033832283FC011182EC
:105890001082F701208131812115310511F0F901C4
:1058A000F9CF9183808399C0D70112968D919C91F5
:1058B00013970E949D32009769F08816990650F060
:1058C000881A990A40E0BC01C7010E9407302C01E8
:1058D000009721F4C7010E94A72B95C0FC012280EC
:1058E0003380AE014C5E5F4FBE016F5F7F4FC101E1
:1058F0000E9436333C01AE014C5E5F4FBE01675FD4
:105900007F4FC1010E94C83277FE03C000E010E063
:1059100027C097FDFBCF262DAE014F5F5F4F682F4D
:10592000CE0109960E94442B009781F3DC01129668
:10593000ED91FC911397B2E06B16710449F4298143
:105940002F3F31F42A812F3F19F4248120682483CA
:10595000D1012C9124FF03C02481206124838C0178
:105960000115110521F4C7010E94A72B4EC0D801D3
:105970001296ED91FC9113978B89858389899A8979
:1059800097838683C114D10431F0D601D7968D91C7
:105990009C91D89702C080E090E093838283D501E8
:1059A000ED91FC910084F185E02D21E030E0A7012C
:1059B000485F5F4F69E1C5011995B201C7010E94B7
:1059C000732EF80111821082F70180819181009776
:1059D00011F0FC01FACF11830083B401C7010E94CA
:1059E000A930870112C0181619066CF4D501ED9183
:1059F000FC910280F381E02D20E030E0A80160E01E
:105A000070E0C501199500E010E0C80165960FB679
:105A1000F894DEBF0FBECDBFDF91CF911F910F91E4
:105A2000FF90EF90DF90CF90BF90AF909F908F90BE
:105A30007F906F905F904F903F902F9008952F929E
:105A40003F924F925F926F927F928F92AF92CF92DE
:105A5000DF92EF92FF920F931F93CF93DF93CDB717
:105A6000DEB76F970FB6F894DEBF0FBECDBFDC0177
:105A700014966D907C901597F30137893872E08405
:105A8000F1846115710511F484EE83C0DB01189671
:105A90002C9118972F3F09F07BC012964D905C9087
:105AA0001397F201248124FD02C0316001C03161ED
:105AB000A32E207CD2014C9121110AC0242F30E06A
:105AC000285F3F4F240D351D11960C9110E004C046
:105AD00002E010E02DEF37E050E04115510519F0DC
